{
  "contractName": "ERC1155Receiver",
  "abi": [
    {
      "anonymous": false,
      "inputs": [
        {
          "indexed": false,
          "internalType": "address",
          "name": "operator",
          "type": "address"
        },
        {
          "indexed": false,
          "internalType": "address",
          "name": "from",
          "type": "address"
        },
        {
          "indexed": false,
          "internalType": "uint256[]",
          "name": "ids",
          "type": "uint256[]"
        },
        {
          "indexed": false,
          "internalType": "uint256[]",
          "name": "values",
          "type": "uint256[]"
        },
        {
          "indexed": false,
          "internalType": "address",
          "name": "token",
          "type": "address"
        }
      ],
      "name": "ERC1155BatchReceived",
      "type": "event"
    },
    {
      "anonymous": false,
      "inputs": [
        {
          "indexed": false,
          "internalType": "address",
          "name": "operator",
          "type": "address"
        },
        {
          "indexed": false,
          "internalType": "address",
          "name": "from",
          "type": "address"
        },
        {
          "indexed": false,
          "internalType": "uint256",
          "name": "id",
          "type": "uint256"
        },
        {
          "indexed": false,
          "internalType": "uint256",
          "name": "value",
          "type": "uint256"
        },
        {
          "indexed": false,
          "internalType": "address",
          "name": "token",
          "type": "address"
        }
      ],
      "name": "ERC1155Received",
      "type": "event"
    },
    {
      "anonymous": false,
      "inputs": [
        {
          "indexed": true,
          "internalType": "address",
          "name": "previousOwner",
          "type": "address"
        },
        {
          "indexed": true,
          "internalType": "address",
          "name": "newOwner",
          "type": "address"
        }
      ],
      "name": "OwnershipTransferred",
      "type": "event"
    },
    {
      "inputs": [],
      "name": "owner",
      "outputs": [
        {
          "internalType": "address",
          "name": "",
          "type": "address"
        }
      ],
      "stateMutability": "view",
      "type": "function"
    },
    {
      "inputs": [],
      "name": "renounceOwnership",
      "outputs": [],
      "stateMutability": "nonpayable",
      "type": "function"
    },
    {
      "inputs": [
        {
          "internalType": "address",
          "name": "newOwner",
          "type": "address"
        }
      ],
      "name": "transferOwnership",
      "outputs": [],
      "stateMutability": "nonpayable",
      "type": "function"
    },
    {
      "inputs": [
        {
          "internalType": "address",
          "name": "operator",
          "type": "address"
        },
        {
          "internalType": "address",
          "name": "from",
          "type": "address"
        },
        {
          "internalType": "uint256",
          "name": "id",
          "type": "uint256"
        },
        {
          "internalType": "uint256",
          "name": "value",
          "type": "uint256"
        },
        {
          "internalType": "bytes",
          "name": "",
          "type": "bytes"
        }
      ],
      "name": "onERC1155Received",
      "outputs": [
        {
          "internalType": "bytes4",
          "name": "",
          "type": "bytes4"
        }
      ],
      "stateMutability": "nonpayable",
      "type": "function"
    },
    {
      "inputs": [
        {
          "internalType": "address",
          "name": "operator",
          "type": "address"
        },
        {
          "internalType": "address",
          "name": "from",
          "type": "address"
        },
        {
          "internalType": "uint256[]",
          "name": "ids",
          "type": "uint256[]"
        },
        {
          "internalType": "uint256[]",
          "name": "values",
          "type": "uint256[]"
        },
        {
          "internalType": "bytes",
          "name": "",
          "type": "bytes"
        }
      ],
      "name": "onERC1155BatchReceived",
      "outputs": [
        {
          "internalType": "bytes4",
          "name": "",
          "type": "bytes4"
        }
      ],
      "stateMutability": "nonpayable",
      "type": "function"
    },
    {
      "inputs": [
        {
          "internalType": "bytes4",
          "name": "interfaceId",
          "type": "bytes4"
        }
      ],
      "name": "supportsInterface",
      "outputs": [
        {
          "internalType": "bool",
          "name": "",
          "type": "bool"
        }
      ],
      "stateMutability": "view",
      "type": "function"
    }
  ],
  "bytecode": "0x608060405234801561000f575f80fd5b5061002c61002161003160201b60201c565b61003860201b60201c565b6100f9565b5f33905090565b5f805f9054906101000a900473ffffffffffffffffffffffffffffffffffffffff169050815f806101000a81548173ffffffffffffffffffffffffffffffffffffffff021916908373ffffffffffffffffffffffffffffffffffffffff1602179055508173ffffffffffffffffffffffffffffffffffffffff168173ffffffffffffffffffffffffffffffffffffffff167f8be0079c531659141344cd1fd0a4f28419497f9722a3daafe3b4186f6b6457e060405160405180910390a35050565b610b27806101065f395ff3fe608060405234801561000f575f80fd5b5060043610610060575f3560e01c806301ffc9a714610064578063715018a6146100945780638da5cb5b1461009e578063bc197c81146100bc578063f23a6e61146100ec578063f2fde38b1461011c575b5f80fd5b61007e60048036038101906100799190610527565b610138565b60405161008b919061056c565b60405180910390f35b61009c6101b1565b005b6100a66101c4565b6040516100b391906105c4565b60405180910390f35b6100d660048036038101906100d191906106bd565b6101eb565b6040516100e391906107a3565b60405180910390f35b610106600480360381019061010191906107ef565b610245565b60405161011391906107a3565b60405180910390f35b61013660048036038101906101319190610885565b610299565b005b5f7f4e2312e0000000000000000000000000000000000000000000000000000000007bffffffffffffffffffffffffffffffffffffffffffffffffffffffff1916827bffffffffffffffffffffffffffffffffffffffffffffffffffffffff191614806101aa57506101a98261031b565b5b9050919050565b6101b9610384565b6101c25f610402565b565b5f805f9054906101000a900473ffffffffffffffffffffffffffffffffffffffff16905090565b5f7f2f4272b6bb929ff826fac76c5bdf93274d31c21ac710c6f167547d98da4e2a31898989898989336040516102279796959493929190610928565b60405180910390a163bc197c8160e01b905098975050505050505050565b5f7f0fdcf74608823563b215cd355900177da227d7d7723b96ee8486952a56b1d64a878787873360405161027d95949392919061099a565b60405180910390a163f23a6e6160e01b90509695505050505050565b6102a1610384565b5f73ffffffffffffffffffffffffffffffffffffffff168173ffffffffffffffffffffffffffffffffffffffff160361030f576040517f08c379a000000000000000000000000000000000000000000000000000000000815260040161030690610a6b565b60405180910390fd5b61031881610402565b50565b5f7f01ffc9a7000000000000000000000000000000000000000000000000000000007bffffffffffffffffffffffffffffffffffffffffffffffffffffffff1916827bffffffffffffffffffffffffffffffffffffffffffffffffffffffff1916149050919050565b61038c6104c3565b73ffffffffffffffffffffffffffffffffffffffff166103aa6101c4565b73ffffffffffffffffffffffffffffffffffffffff1614610400576040517f08c379a00000000000000000000000000000000000000000000000000000000081526004016103f790610ad3565b60405180910390fd5b565b5f805f9054906101000a900473ffffffffffffffffffffffffffffffffffffffff169050815f806101000a81548173ffffffffffffffffffffffffffffffffffffffff021916908373ffffffffffffffffffffffffffffffffffffffff1602179055508173ffffffffffffffffffffffffffffffffffffffff168173ffffffffffffffffffffffffffffffffffffffff167f8be0079c531659141344cd1fd0a4f28419497f9722a3daafe3b4186f6b6457e060405160405180910390a35050565b5f33905090565b5f80fd5b5f80fd5b5f7fffffffff0000000000000000000000000000000000000000000000000000000082169050919050565b610506816104d2565b8114610510575f80fd5b50565b5f81359050610521816104fd565b92915050565b5f6020828403121561053c5761053b6104ca565b5b5f61054984828501610513565b91505092915050565b5f8115159050919050565b61056681610552565b82525050565b5f60208201905061057f5f83018461055d565b92915050565b5f73ffffffffffffffffffffffffffffffffffffffff82169050919050565b5f6105ae82610585565b9050919050565b6105be816105a4565b82525050565b5f6020820190506105d75f8301846105b5565b92915050565b6105e6816105a4565b81146105f0575f80fd5b50565b5f81359050610601816105dd565b92915050565b5f80fd5b5f80fd5b5f80fd5b5f8083601f84011261062857610627610607565b5b8235905067ffffffffffffffff8111156106455761064461060b565b5b6020830191508360208202830111156106615761066061060f565b5b9250929050565b5f8083601f84011261067d5761067c610607565b5b8235905067ffffffffffffffff81111561069a5761069961060b565b5b6020830191508360018202830111156106b6576106b561060f565b5b9250929050565b5f805f805f805f8060a0898b0312156106d9576106d86104ca565b5b5f6106e68b828c016105f3565b98505060206106f78b828c016105f3565b975050604089013567ffffffffffffffff811115610718576107176104ce565b5b6107248b828c01610613565b9650965050606089013567ffffffffffffffff811115610747576107466104ce565b5b6107538b828c01610613565b9450945050608089013567ffffffffffffffff811115610776576107756104ce565b5b6107828b828c01610668565b92509250509295985092959890939650565b61079d816104d2565b82525050565b5f6020820190506107b65f830184610794565b92915050565b5f819050919050565b6107ce816107bc565b81146107d8575f80fd5b50565b5f813590506107e9816107c5565b92915050565b5f805f805f8060a08789031215610809576108086104ca565b5b5f61081689828a016105f3565b965050602061082789828a016105f3565b955050604061083889828a016107db565b945050606061084989828a016107db565b935050608087013567ffffffffffffffff81111561086a576108696104ce565b5b61087689828a01610668565b92509250509295509295509295565b5f6020828403121561089a576108996104ca565b5b5f6108a7848285016105f3565b91505092915050565b5f82825260208201905092915050565b5f80fd5b82818337505050565b5f6108d883856108b0565b93507f07ffffffffffffffffffffffffffffffffffffffffffffffffffffffffffffff83111561090b5761090a6108c0565b5b60208302925061091c8385846108c4565b82840190509392505050565b5f60a08201905061093b5f83018a6105b5565b61094860208301896105b5565b818103604083015261095b8187896108cd565b905081810360608301526109708185876108cd565b905061097f60808301846105b5565b98975050505050505050565b610994816107bc565b82525050565b5f60a0820190506109ad5f8301886105b5565b6109ba60208301876105b5565b6109c7604083018661098b565b6109d4606083018561098b565b6109e160808301846105b5565b9695505050505050565b5f82825260208201905092915050565b7f4f776e61626c653a206e6577206f776e657220697320746865207a65726f20615f8201527f6464726573730000000000000000000000000000000000000000000000000000602082015250565b5f610a556026836109eb565b9150610a60826109fb565b604082019050919050565b5f6020820190508181035f830152610a8281610a49565b9050919050565b7f4f776e61626c653a2063616c6c6572206973206e6f7420746865206f776e65725f82015250565b5f610abd6020836109eb565b9150610ac882610a89565b602082019050919050565b5f6020820190508181035f830152610aea81610ab1565b905091905056fea26469706673582212209b103ddad91dea9f96b92358ab990ca921413ff9fb912b346a284c5bd9f7bd5164736f6c63430008150033",
  "immutableReferences": {},
  "source": "// SPDX-License-Identifier: MIT\r\npragma solidity ^0.8.20;\r\n\r\nimport \"@openzeppelin/contracts/token/ERC1155/IERC1155Receiver.sol\";\r\nimport \"@openzeppelin/contracts/utils/introspection/ERC165.sol\";\r\nimport \"@openzeppelin/contracts/access/Ownable.sol\";\r\n\r\ncontract ERC1155Receiver is IERC1155Receiver, ERC165, Ownable {\r\n    event ERC1155Received(address operator, address from, uint256 id, uint256 value, address token);\r\n    event ERC1155BatchReceived(address operator, address from, uint256[] ids, uint256[] values, address token);\r\n\r\n    function onERC1155Received(\r\n        address operator,\r\n        address from,\r\n        uint256 id,\r\n        uint256 value,\r\n        bytes calldata\r\n    ) external override returns (bytes4) {\r\n        emit ERC1155Received(operator, from, id, value, msg.sender);\r\n        return this.onERC1155Received.selector;\r\n    }\r\n\r\n    function onERC1155BatchReceived(\r\n        address operator,\r\n        address from,\r\n        uint256[] calldata ids,\r\n        uint256[] calldata values,\r\n        bytes calldata\r\n    ) external override returns (bytes4) {\r\n        emit ERC1155BatchReceived(operator, from, ids, values, msg.sender);\r\n        return this.onERC1155BatchReceived.selector;\r\n    }\r\n\r\n    function supportsInterface(bytes4 interfaceId) public view override(IERC165, ERC165) returns (bool) {\r\n        return interfaceId == type(IERC1155Receiver).interfaceId || super.supportsInterface(interfaceId);\r\n    }\r\n}\r\n",
  "sourcePath": "E:\\Daily-multisig\\daily-multisig-app\\contracts\\contracts\\extensions\\ERC115Receiver.sol",
  "compiler": {
    "name": "solc",
    "version": "0.8.21+commit.d9974bed.Emscripten.clang"
  },
  "schemaVersion": "3.4.16",
  "updatedAt": "2025-07-07T07:55:29.154Z",
  "devdoc": {
    "kind": "dev",
    "methods": {
      "owner()": {
        "details": "Returns the address of the current owner."
      },
      "renounceOwnership()": {
        "details": "Leaves the contract without owner. It will not be possible to call `onlyOwner` functions. Can only be called by the current owner. NOTE: Renouncing ownership will leave the contract without an owner, thereby disabling any functionality that is only available to the owner."
      },
      "transferOwnership(address)": {
        "details": "Transfers ownership of the contract to a new account (`newOwner`). Can only be called by the current owner."
      }
    },
    "version": 1
  },
  "userdoc": {
    "kind": "user",
    "methods": {},
    "version": 1
  }
}