{
  "contractName": "ERC20Receiver",
  "abi": [
    {
      "anonymous": false,
      "inputs": [
        {
          "indexed": true,
          "internalType": "address",
          "name": "token",
          "type": "address"
        },
        {
          "indexed": true,
          "internalType": "address",
          "name": "from",
          "type": "address"
        },
        {
          "indexed": false,
          "internalType": "uint256",
          "name": "amount",
          "type": "uint256"
        }
      ],
      "name": "ERC20Received",
      "type": "event"
    },
    {
      "anonymous": false,
      "inputs": [
        {
          "indexed": true,
          "internalType": "address",
          "name": "previousOwner",
          "type": "address"
        },
        {
          "indexed": true,
          "internalType": "address",
          "name": "newOwner",
          "type": "address"
        }
      ],
      "name": "OwnershipTransferred",
      "type": "event"
    },
    {
      "inputs": [],
      "name": "owner",
      "outputs": [
        {
          "internalType": "address",
          "name": "",
          "type": "address"
        }
      ],
      "stateMutability": "view",
      "type": "function"
    },
    {
      "inputs": [],
      "name": "renounceOwnership",
      "outputs": [],
      "stateMutability": "nonpayable",
      "type": "function"
    },
    {
      "inputs": [
        {
          "internalType": "address",
          "name": "newOwner",
          "type": "address"
        }
      ],
      "name": "transferOwnership",
      "outputs": [],
      "stateMutability": "nonpayable",
      "type": "function"
    },
    {
      "inputs": [
        {
          "internalType": "address",
          "name": "token",
          "type": "address"
        },
        {
          "internalType": "uint256",
          "name": "amount",
          "type": "uint256"
        }
      ],
      "name": "receiveERC20",
      "outputs": [],
      "stateMutability": "nonpayable",
      "type": "function"
    },
    {
      "inputs": [
        {
          "internalType": "address",
          "name": "token",
          "type": "address"
        }
      ],
      "name": "balanceOf",
      "outputs": [
        {
          "internalType": "uint256",
          "name": "",
          "type": "uint256"
        }
      ],
      "stateMutability": "view",
      "type": "function"
    }
  ],
  "bytecode": "0x608060405234801561000f575f80fd5b5061002c61002161003160201b60201c565b61003860201b60201c565b6100f9565b5f33905090565b5f805f9054906101000a900473ffffffffffffffffffffffffffffffffffffffff169050815f806101000a81548173ffffffffffffffffffffffffffffffffffffffff021916908373ffffffffffffffffffffffffffffffffffffffff1602179055508173ffffffffffffffffffffffffffffffffffffffff168173ffffffffffffffffffffffffffffffffffffffff167f8be0079c531659141344cd1fd0a4f28419497f9722a3daafe3b4186f6b6457e060405160405180910390a35050565b6109d7806101065f395ff3fe608060405234801561000f575f80fd5b5060043610610055575f3560e01c806370a0823114610059578063715018a6146100895780638da5cb5b14610093578063aed4aab6146100b1578063f2fde38b146100cd575b5f80fd5b610073600480360381019061006e91906105a3565b6100e9565b60405161008091906105e6565b60405180910390f35b610091610169565b005b61009b61017c565b6040516100a8919061060e565b60405180910390f35b6100cb60048036038101906100c69190610651565b6101a3565b005b6100e760048036038101906100e291906105a3565b61037d565b005b5f8173ffffffffffffffffffffffffffffffffffffffff166370a08231306040518263ffffffff1660e01b8152600401610123919061060e565b602060405180830381865afa15801561013e573d5f803e3d5ffd5b505050506040513d601f19601f8201168201806040525081019061016291906106a3565b9050919050565b6101716103ff565b61017a5f61047d565b565b5f805f9054906101000a900473ffffffffffffffffffffffffffffffffffffffff16905090565b5f81116101e5576040517f08c379a00000000000000000000000000000000000000000000000000000000081526004016101dc90610728565b60405180910390fd5b5f73ffffffffffffffffffffffffffffffffffffffff168273ffffffffffffffffffffffffffffffffffffffff1603610253576040517f08c379a000000000000000000000000000000000000000000000000000000000815260040161024a90610790565b60405180910390fd5b5f8273ffffffffffffffffffffffffffffffffffffffff166323b872dd3330856040518463ffffffff1660e01b8152600401610291939291906107ae565b6020604051808303815f875af11580156102ad573d5f803e3d5ffd5b505050506040513d601f19601f820116820180604052508101906102d19190610818565b905080610313576040517f08c379a000000000000000000000000000000000000000000000000000000000815260040161030a9061088d565b60405180910390fd5b3373ffffffffffffffffffffffffffffffffffffffff168373ffffffffffffffffffffffffffffffffffffffff167f12ca2fe53ea3195be662b13326c0b58c013414d9d62c4f1c8f9e9471e7a574ed8460405161037091906105e6565b60405180910390a3505050565b6103856103ff565b5f73ffffffffffffffffffffffffffffffffffffffff168173ffffffffffffffffffffffffffffffffffffffff16036103f3576040517f08c379a00000000000000000000000000000000000000000000000000000000081526004016103ea9061091b565b60405180910390fd5b6103fc8161047d565b50565b61040761053e565b73ffffffffffffffffffffffffffffffffffffffff1661042561017c565b73ffffffffffffffffffffffffffffffffffffffff161461047b576040517f08c379a000000000000000000000000000000000000000000000000000000000815260040161047290610983565b60405180910390fd5b565b5f805f9054906101000a900473ffffffffffffffffffffffffffffffffffffffff169050815f806101000a81548173ffffffffffffffffffffffffffffffffffffffff021916908373ffffffffffffffffffffffffffffffffffffffff1602179055508173ffffffffffffffffffffffffffffffffffffffff168173ffffffffffffffffffffffffffffffffffffffff167f8be0079c531659141344cd1fd0a4f28419497f9722a3daafe3b4186f6b6457e060405160405180910390a35050565b5f33905090565b5f80fd5b5f73ffffffffffffffffffffffffffffffffffffffff82169050919050565b5f61057282610549565b9050919050565b61058281610568565b811461058c575f80fd5b50565b5f8135905061059d81610579565b92915050565b5f602082840312156105b8576105b7610545565b5b5f6105c58482850161058f565b91505092915050565b5f819050919050565b6105e0816105ce565b82525050565b5f6020820190506105f95f8301846105d7565b92915050565b61060881610568565b82525050565b5f6020820190506106215f8301846105ff565b92915050565b610630816105ce565b811461063a575f80fd5b50565b5f8135905061064b81610627565b92915050565b5f806040838503121561066757610666610545565b5b5f6106748582860161058f565b92505060206106858582860161063d565b9150509250929050565b5f8151905061069d81610627565b92915050565b5f602082840312156106b8576106b7610545565b5b5f6106c58482850161068f565b91505092915050565b5f82825260208201905092915050565b7f416d6f756e74206d757374206265203e203000000000000000000000000000005f82015250565b5f6107126012836106ce565b915061071d826106de565b602082019050919050565b5f6020820190508181035f83015261073f81610706565b9050919050565b7f496e76616c696420746f6b656e000000000000000000000000000000000000005f82015250565b5f61077a600d836106ce565b915061078582610746565b602082019050919050565b5f6020820190508181035f8301526107a78161076e565b9050919050565b5f6060820190506107c15f8301866105ff565b6107ce60208301856105ff565b6107db60408301846105d7565b949350505050565b5f8115159050919050565b6107f7816107e3565b8114610801575f80fd5b50565b5f81519050610812816107ee565b92915050565b5f6020828403121561082d5761082c610545565b5b5f61083a84828501610804565b91505092915050565b7f5472616e73666572206661696c656400000000000000000000000000000000005f82015250565b5f610877600f836106ce565b915061088282610843565b602082019050919050565b5f6020820190508181035f8301526108a48161086b565b9050919050565b7f4f776e61626c653a206e6577206f776e657220697320746865207a65726f20615f8201527f6464726573730000000000000000000000000000000000000000000000000000602082015250565b5f6109056026836106ce565b9150610910826108ab565b604082019050919050565b5f6020820190508181035f830152610932816108f9565b9050919050565b7f4f776e61626c653a2063616c6c6572206973206e6f7420746865206f776e65725f82015250565b5f61096d6020836106ce565b915061097882610939565b602082019050919050565b5f6020820190508181035f83015261099a81610961565b905091905056fea26469706673582212207d3e8b0bbe5728b702c060acb80e0de7b4a2b5a09faae0f006c686c28015931c64736f6c63430008150033",
  "immutableReferences": {},
  "source": "// SPDX-License-Identifier: MIT\r\npragma solidity ^0.8.20;\r\n\r\nimport \"@openzeppelin/contracts/token/ERC20/IERC20.sol\";\r\nimport \"@openzeppelin/contracts/access/Ownable.sol\";\r\n\r\ncontract ERC20Receiver is Ownable {\r\n    event ERC20Received(address indexed token, address indexed from, uint256 amount);\r\n\r\n    function receiveERC20(address token, uint256 amount) external {\r\n        require(amount > 0, \"Amount must be > 0\");\r\n        require(token != address(0), \"Invalid token\");\r\n\r\n        bool success = IERC20(token).transferFrom(msg.sender, address(this), amount);\r\n        require(success, \"Transfer failed\");\r\n\r\n        emit ERC20Received(token, msg.sender, amount);\r\n    }\r\n\r\n    function balanceOf(address token) public view returns (uint256) {\r\n        return IERC20(token).balanceOf(address(this));\r\n    }\r\n}\r\n",
  "sourcePath": "E:\\Daily-multisig\\daily-multisig-app\\contracts\\contracts\\extensions\\ERC20Receiver.sol",
  "compiler": {
    "name": "solc",
    "version": "0.8.21+commit.d9974bed.Emscripten.clang"
  },
  "schemaVersion": "3.4.16",
  "updatedAt": "2025-07-07T07:55:29.160Z",
  "devdoc": {
    "kind": "dev",
    "methods": {
      "owner()": {
        "details": "Returns the address of the current owner."
      },
      "renounceOwnership()": {
        "details": "Leaves the contract without owner. It will not be possible to call `onlyOwner` functions. Can only be called by the current owner. NOTE: Renouncing ownership will leave the contract without an owner, thereby disabling any functionality that is only available to the owner."
      },
      "transferOwnership(address)": {
        "details": "Transfers ownership of the contract to a new account (`newOwner`). Can only be called by the current owner."
      }
    },
    "version": 1
  },
  "userdoc": {
    "kind": "user",
    "methods": {},
    "version": 1
  }
}