{
  "contractName": "ERC721Receiver",
  "abi": [
    {
      "anonymous": false,
      "inputs": [
        {
          "indexed": true,
          "internalType": "address",
          "name": "operator",
          "type": "address"
        },
        {
          "indexed": true,
          "internalType": "address",
          "name": "from",
          "type": "address"
        },
        {
          "indexed": false,
          "internalType": "uint256",
          "name": "tokenId",
          "type": "uint256"
        },
        {
          "indexed": false,
          "internalType": "address",
          "name": "token",
          "type": "address"
        }
      ],
      "name": "ERC721Received",
      "type": "event"
    },
    {
      "anonymous": false,
      "inputs": [
        {
          "indexed": true,
          "internalType": "address",
          "name": "previousOwner",
          "type": "address"
        },
        {
          "indexed": true,
          "internalType": "address",
          "name": "newOwner",
          "type": "address"
        }
      ],
      "name": "OwnershipTransferred",
      "type": "event"
    },
    {
      "inputs": [],
      "name": "owner",
      "outputs": [
        {
          "internalType": "address",
          "name": "",
          "type": "address"
        }
      ],
      "stateMutability": "view",
      "type": "function"
    },
    {
      "inputs": [],
      "name": "renounceOwnership",
      "outputs": [],
      "stateMutability": "nonpayable",
      "type": "function"
    },
    {
      "inputs": [
        {
          "internalType": "address",
          "name": "newOwner",
          "type": "address"
        }
      ],
      "name": "transferOwnership",
      "outputs": [],
      "stateMutability": "nonpayable",
      "type": "function"
    },
    {
      "inputs": [
        {
          "internalType": "address",
          "name": "operator",
          "type": "address"
        },
        {
          "internalType": "address",
          "name": "from",
          "type": "address"
        },
        {
          "internalType": "uint256",
          "name": "tokenId",
          "type": "uint256"
        },
        {
          "internalType": "bytes",
          "name": "",
          "type": "bytes"
        }
      ],
      "name": "onERC721Received",
      "outputs": [
        {
          "internalType": "bytes4",
          "name": "",
          "type": "bytes4"
        }
      ],
      "stateMutability": "nonpayable",
      "type": "function"
    }
  ],
  "bytecode": "0x608060405234801561000f575f80fd5b5061002c61002161003160201b60201c565b61003860201b60201c565b6100f9565b5f33905090565b5f805f9054906101000a900473ffffffffffffffffffffffffffffffffffffffff169050815f806101000a81548173ffffffffffffffffffffffffffffffffffffffff021916908373ffffffffffffffffffffffffffffffffffffffff1602179055508173ffffffffffffffffffffffffffffffffffffffff168173ffffffffffffffffffffffffffffffffffffffff167f8be0079c531659141344cd1fd0a4f28419497f9722a3daafe3b4186f6b6457e060405160405180910390a35050565b6106d1806101065f395ff3fe608060405234801561000f575f80fd5b506004361061004a575f3560e01c8063150b7a021461004e578063715018a61461007e5780638da5cb5b14610088578063f2fde38b146100a6575b5f80fd5b61006860048036038101906100639190610435565b6100c2565b60405161007591906104f3565b60405180910390f35b61008661013d565b005b610090610150565b60405161009d919061051b565b60405180910390f35b6100c060048036038101906100bb9190610534565b610177565b005b5f8473ffffffffffffffffffffffffffffffffffffffff168673ffffffffffffffffffffffffffffffffffffffff167f621ad0df97ccc61d2e83c3d6bcaed840e7da66199eaf3a0520236f22ac1bbc5d863360405161012292919061056e565b60405180910390a363150b7a0260e01b905095945050505050565b6101456101f9565b61014e5f610277565b565b5f805f9054906101000a900473ffffffffffffffffffffffffffffffffffffffff16905090565b61017f6101f9565b5f73ffffffffffffffffffffffffffffffffffffffff168173ffffffffffffffffffffffffffffffffffffffff16036101ed576040517f08c379a00000000000000000000000000000000000000000000000000000000081526004016101e490610615565b60405180910390fd5b6101f681610277565b50565b610201610338565b73ffffffffffffffffffffffffffffffffffffffff1661021f610150565b73ffffffffffffffffffffffffffffffffffffffff1614610275576040517f08c379a000000000000000000000000000000000000000000000000000000000815260040161026c9061067d565b60405180910390fd5b565b5f805f9054906101000a900473ffffffffffffffffffffffffffffffffffffffff169050815f806101000a81548173ffffffffffffffffffffffffffffffffffffffff021916908373ffffffffffffffffffffffffffffffffffffffff1602179055508173ffffffffffffffffffffffffffffffffffffffff168173ffffffffffffffffffffffffffffffffffffffff167f8be0079c531659141344cd1fd0a4f28419497f9722a3daafe3b4186f6b6457e060405160405180910390a35050565b5f33905090565b5f80fd5b5f80fd5b5f73ffffffffffffffffffffffffffffffffffffffff82169050919050565b5f61037082610347565b9050919050565b61038081610366565b811461038a575f80fd5b50565b5f8135905061039b81610377565b92915050565b5f819050919050565b6103b3816103a1565b81146103bd575f80fd5b50565b5f813590506103ce816103aa565b92915050565b5f80fd5b5f80fd5b5f80fd5b5f8083601f8401126103f5576103f46103d4565b5b8235905067ffffffffffffffff811115610412576104116103d8565b5b60208301915083600182028301111561042e5761042d6103dc565b5b9250929050565b5f805f805f6080868803121561044e5761044d61033f565b5b5f61045b8882890161038d565b955050602061046c8882890161038d565b945050604061047d888289016103c0565b935050606086013567ffffffffffffffff81111561049e5761049d610343565b5b6104aa888289016103e0565b92509250509295509295909350565b5f7fffffffff0000000000000000000000000000000000000000000000000000000082169050919050565b6104ed816104b9565b82525050565b5f6020820190506105065f8301846104e4565b92915050565b61051581610366565b82525050565b5f60208201905061052e5f83018461050c565b92915050565b5f602082840312156105495761054861033f565b5b5f6105568482850161038d565b91505092915050565b610568816103a1565b82525050565b5f6040820190506105815f83018561055f565b61058e602083018461050c565b9392505050565b5f82825260208201905092915050565b7f4f776e61626c653a206e6577206f776e657220697320746865207a65726f20615f8201527f6464726573730000000000000000000000000000000000000000000000000000602082015250565b5f6105ff602683610595565b915061060a826105a5565b604082019050919050565b5f6020820190508181035f83015261062c816105f3565b9050919050565b7f4f776e61626c653a2063616c6c6572206973206e6f7420746865206f776e65725f82015250565b5f610667602083610595565b915061067282610633565b602082019050919050565b5f6020820190508181035f8301526106948161065b565b905091905056fea26469706673582212204bc11f0bcf43ff4ac27698043f4c6f7b7b8a496e6b634b9fc436516c03a304bf64736f6c63430008150033",
  "immutableReferences": {},
  "source": "// SPDX-License-Identifier: MIT\r\npragma solidity ^0.8.20;\r\n\r\nimport \"@openzeppelin/contracts/token/ERC721/IERC721Receiver.sol\";\r\nimport \"@openzeppelin/contracts/access/Ownable.sol\";\r\n\r\ncontract ERC721Receiver is IERC721Receiver, Ownable {\r\n    event ERC721Received(address indexed operator, address indexed from, uint256 tokenId, address token);\r\n\r\n    function onERC721Received(\r\n        address operator,\r\n        address from,\r\n        uint256 tokenId,\r\n        bytes calldata\r\n    ) external override returns (bytes4) {\r\n        emit ERC721Received(operator, from, tokenId, msg.sender);\r\n        return this.onERC721Received.selector;\r\n    }\r\n}\r\n",
  "sourcePath": "E:\\Daily-multisig\\daily-multisig-app\\contracts\\contracts\\extensions\\ERC721Receiver.sol",
  "compiler": {
    "name": "solc",
    "version": "0.8.21+commit.d9974bed.Emscripten.clang"
  },
  "schemaVersion": "3.4.16",
  "updatedAt": "2025-07-07T07:55:29.165Z",
  "devdoc": {
    "kind": "dev",
    "methods": {
      "owner()": {
        "details": "Returns the address of the current owner."
      },
      "renounceOwnership()": {
        "details": "Leaves the contract without owner. It will not be possible to call `onlyOwner` functions. Can only be called by the current owner. NOTE: Renouncing ownership will leave the contract without an owner, thereby disabling any functionality that is only available to the owner."
      },
      "transferOwnership(address)": {
        "details": "Transfers ownership of the contract to a new account (`newOwner`). Can only be called by the current owner."
      }
    },
    "version": 1
  },
  "userdoc": {
    "kind": "user",
    "methods": {},
    "version": 1
  }
}