{
  "contractName": "MultisigWallet",
  "abi": [
    {
      "inputs": [
        {
          "internalType": "address[]",
          "name": "_owners",
          "type": "address[]"
        },
        {
          "internalType": "uint256",
          "name": "_requiredConfirmations",
          "type": "uint256"
        }
      ],
      "stateMutability": "nonpayable",
      "type": "constructor"
    },
    {
      "anonymous": false,
      "inputs": [
        {
          "indexed": true,
          "internalType": "uint256",
          "name": "txId",
          "type": "uint256"
        },
        {
          "indexed": true,
          "internalType": "address",
          "name": "sender",
          "type": "address"
        }
      ],
      "name": "ConfirmTransaction",
      "type": "event"
    },
    {
      "anonymous": false,
      "inputs": [
        {
          "indexed": true,
          "internalType": "address",
          "name": "sessionKey",
          "type": "address"
        }
      ],
      "name": "DelegateAssigned",
      "type": "event"
    },
    {
      "anonymous": false,
      "inputs": [
        {
          "indexed": true,
          "internalType": "uint256",
          "name": "txId",
          "type": "uint256"
        },
        {
          "indexed": false,
          "internalType": "address",
          "name": "executor",
          "type": "address"
        }
      ],
      "name": "ExecuteTransaction",
      "type": "event"
    },
    {
      "anonymous": false,
      "inputs": [
        {
          "indexed": true,
          "internalType": "address",
          "name": "newOwner",
          "type": "address"
        }
      ],
      "name": "OwnerAdded",
      "type": "event"
    },
    {
      "anonymous": false,
      "inputs": [
        {
          "indexed": true,
          "internalType": "address",
          "name": "removedOwner",
          "type": "address"
        }
      ],
      "name": "OwnerRemoved",
      "type": "event"
    },
    {
      "anonymous": false,
      "inputs": [
        {
          "indexed": true,
          "internalType": "uint256",
          "name": "txId",
          "type": "uint256"
        },
        {
          "indexed": true,
          "internalType": "address",
          "name": "sender",
          "type": "address"
        }
      ],
      "name": "RevokeConfirmation",
      "type": "event"
    },
    {
      "anonymous": false,
      "inputs": [
        {
          "indexed": true,
          "internalType": "bytes32",
          "name": "role",
          "type": "bytes32"
        },
        {
          "indexed": true,
          "internalType": "bytes32",
          "name": "previousAdminRole",
          "type": "bytes32"
        },
        {
          "indexed": true,
          "internalType": "bytes32",
          "name": "newAdminRole",
          "type": "bytes32"
        }
      ],
      "name": "RoleAdminChanged",
      "type": "event"
    },
    {
      "anonymous": false,
      "inputs": [
        {
          "indexed": true,
          "internalType": "bytes32",
          "name": "role",
          "type": "bytes32"
        },
        {
          "indexed": true,
          "internalType": "address",
          "name": "account",
          "type": "address"
        },
        {
          "indexed": true,
          "internalType": "address",
          "name": "sender",
          "type": "address"
        }
      ],
      "name": "RoleGranted",
      "type": "event"
    },
    {
      "anonymous": false,
      "inputs": [
        {
          "indexed": true,
          "internalType": "bytes32",
          "name": "role",
          "type": "bytes32"
        },
        {
          "indexed": true,
          "internalType": "address",
          "name": "account",
          "type": "address"
        },
        {
          "indexed": true,
          "internalType": "address",
          "name": "sender",
          "type": "address"
        }
      ],
      "name": "RoleRevoked",
      "type": "event"
    },
    {
      "anonymous": false,
      "inputs": [
        {
          "indexed": true,
          "internalType": "uint256",
          "name": "txId",
          "type": "uint256"
        },
        {
          "indexed": true,
          "internalType": "address",
          "name": "sender",
          "type": "address"
        }
      ],
      "name": "SubmitTransaction",
      "type": "event"
    },
    {
      "anonymous": false,
      "inputs": [
        {
          "indexed": true,
          "internalType": "uint256",
          "name": "txId",
          "type": "uint256"
        }
      ],
      "name": "TransactionCancelled",
      "type": "event"
    },
    {
      "inputs": [],
      "name": "AUDITOR_ROLE",
      "outputs": [
        {
          "internalType": "bytes32",
          "name": "",
          "type": "bytes32"
        }
      ],
      "stateMutability": "view",
      "type": "function"
    },
    {
      "inputs": [],
      "name": "DEFAULT_ADMIN_ROLE",
      "outputs": [
        {
          "internalType": "bytes32",
          "name": "",
          "type": "bytes32"
        }
      ],
      "stateMutability": "view",
      "type": "function"
    },
    {
      "inputs": [],
      "name": "EXECUTOR_ROLE",
      "outputs": [
        {
          "internalType": "bytes32",
          "name": "",
          "type": "bytes32"
        }
      ],
      "stateMutability": "view",
      "type": "function"
    },
    {
      "inputs": [],
      "name": "OWNER_ROLE",
      "outputs": [
        {
          "internalType": "bytes32",
          "name": "",
          "type": "bytes32"
        }
      ],
      "stateMutability": "view",
      "type": "function"
    },
    {
      "inputs": [
        {
          "internalType": "uint256",
          "name": "",
          "type": "uint256"
        },
        {
          "internalType": "address",
          "name": "",
          "type": "address"
        }
      ],
      "name": "confirmations",
      "outputs": [
        {
          "internalType": "bool",
          "name": "",
          "type": "bool"
        }
      ],
      "stateMutability": "view",
      "type": "function"
    },
    {
      "inputs": [],
      "name": "feeBasisPoints",
      "outputs": [
        {
          "internalType": "uint256",
          "name": "",
          "type": "uint256"
        }
      ],
      "stateMutability": "view",
      "type": "function"
    },
    {
      "inputs": [],
      "name": "feeRecipient",
      "outputs": [
        {
          "internalType": "address",
          "name": "",
          "type": "address"
        }
      ],
      "stateMutability": "view",
      "type": "function"
    },
    {
      "inputs": [
        {
          "internalType": "bytes32",
          "name": "role",
          "type": "bytes32"
        }
      ],
      "name": "getRoleAdmin",
      "outputs": [
        {
          "internalType": "bytes32",
          "name": "",
          "type": "bytes32"
        }
      ],
      "stateMutability": "view",
      "type": "function"
    },
    {
      "inputs": [
        {
          "internalType": "bytes32",
          "name": "role",
          "type": "bytes32"
        },
        {
          "internalType": "uint256",
          "name": "index",
          "type": "uint256"
        }
      ],
      "name": "getRoleMember",
      "outputs": [
        {
          "internalType": "address",
          "name": "",
          "type": "address"
        }
      ],
      "stateMutability": "view",
      "type": "function"
    },
    {
      "inputs": [
        {
          "internalType": "bytes32",
          "name": "role",
          "type": "bytes32"
        }
      ],
      "name": "getRoleMemberCount",
      "outputs": [
        {
          "internalType": "uint256",
          "name": "",
          "type": "uint256"
        }
      ],
      "stateMutability": "view",
      "type": "function"
    },
    {
      "inputs": [
        {
          "internalType": "bytes32",
          "name": "role",
          "type": "bytes32"
        },
        {
          "internalType": "address",
          "name": "account",
          "type": "address"
        }
      ],
      "name": "grantRole",
      "outputs": [],
      "stateMutability": "nonpayable",
      "type": "function"
    },
    {
      "inputs": [
        {
          "internalType": "bytes32",
          "name": "role",
          "type": "bytes32"
        },
        {
          "internalType": "address",
          "name": "account",
          "type": "address"
        }
      ],
      "name": "hasRole",
      "outputs": [
        {
          "internalType": "bool",
          "name": "",
          "type": "bool"
        }
      ],
      "stateMutability": "view",
      "type": "function"
    },
    {
      "inputs": [
        {
          "internalType": "address",
          "name": "",
          "type": "address"
        }
      ],
      "name": "lastSubmitTime",
      "outputs": [
        {
          "internalType": "uint256",
          "name": "",
          "type": "uint256"
        }
      ],
      "stateMutability": "view",
      "type": "function"
    },
    {
      "inputs": [],
      "name": "minDelay",
      "outputs": [
        {
          "internalType": "uint256",
          "name": "",
          "type": "uint256"
        }
      ],
      "stateMutability": "view",
      "type": "function"
    },
    {
      "inputs": [
        {
          "internalType": "bytes32",
          "name": "role",
          "type": "bytes32"
        },
        {
          "internalType": "address",
          "name": "account",
          "type": "address"
        }
      ],
      "name": "renounceRole",
      "outputs": [],
      "stateMutability": "nonpayable",
      "type": "function"
    },
    {
      "inputs": [],
      "name": "requiredConfirmations",
      "outputs": [
        {
          "internalType": "uint256",
          "name": "",
          "type": "uint256"
        }
      ],
      "stateMutability": "view",
      "type": "function"
    },
    {
      "inputs": [
        {
          "internalType": "bytes32",
          "name": "role",
          "type": "bytes32"
        },
        {
          "internalType": "address",
          "name": "account",
          "type": "address"
        }
      ],
      "name": "revokeRole",
      "outputs": [],
      "stateMutability": "nonpayable",
      "type": "function"
    },
    {
      "inputs": [
        {
          "internalType": "address",
          "name": "",
          "type": "address"
        }
      ],
      "name": "sessionDelegates",
      "outputs": [
        {
          "internalType": "bool",
          "name": "",
          "type": "bool"
        }
      ],
      "stateMutability": "view",
      "type": "function"
    },
    {
      "inputs": [
        {
          "internalType": "bytes4",
          "name": "interfaceId",
          "type": "bytes4"
        }
      ],
      "name": "supportsInterface",
      "outputs": [
        {
          "internalType": "bool",
          "name": "",
          "type": "bool"
        }
      ],
      "stateMutability": "view",
      "type": "function"
    },
    {
      "inputs": [
        {
          "internalType": "uint256",
          "name": "",
          "type": "uint256"
        }
      ],
      "name": "transactions",
      "outputs": [
        {
          "internalType": "address",
          "name": "destination",
          "type": "address"
        },
        {
          "internalType": "uint256",
          "name": "value",
          "type": "uint256"
        },
        {
          "internalType": "bytes",
          "name": "data",
          "type": "bytes"
        },
        {
          "internalType": "bool",
          "name": "executed",
          "type": "bool"
        },
        {
          "internalType": "uint256",
          "name": "numConfirmations",
          "type": "uint256"
        },
        {
          "internalType": "uint256",
          "name": "timestamp",
          "type": "uint256"
        },
        {
          "internalType": "string",
          "name": "vaultLabel",
          "type": "string"
        }
      ],
      "stateMutability": "view",
      "type": "function"
    },
    {
      "stateMutability": "payable",
      "type": "receive"
    },
    {
      "inputs": [],
      "name": "getOwners",
      "outputs": [
        {
          "internalType": "address[]",
          "name": "",
          "type": "address[]"
        }
      ],
      "stateMutability": "view",
      "type": "function"
    },
    {
      "inputs": [
        {
          "internalType": "address",
          "name": "to",
          "type": "address"
        },
        {
          "internalType": "uint256",
          "name": "value",
          "type": "uint256"
        },
        {
          "internalType": "bytes",
          "name": "data",
          "type": "bytes"
        },
        {
          "internalType": "string",
          "name": "vaultLabel",
          "type": "string"
        }
      ],
      "name": "submitTransaction",
      "outputs": [
        {
          "internalType": "uint256",
          "name": "",
          "type": "uint256"
        }
      ],
      "stateMutability": "payable",
      "type": "function"
    },
    {
      "inputs": [
        {
          "internalType": "uint256",
          "name": "txId",
          "type": "uint256"
        }
      ],
      "name": "confirmTransaction",
      "outputs": [],
      "stateMutability": "nonpayable",
      "type": "function"
    },
    {
      "inputs": [
        {
          "internalType": "uint256",
          "name": "txId",
          "type": "uint256"
        }
      ],
      "name": "revokeConfirmation",
      "outputs": [],
      "stateMutability": "nonpayable",
      "type": "function"
    },
    {
      "inputs": [
        {
          "internalType": "uint256",
          "name": "txId",
          "type": "uint256"
        }
      ],
      "name": "executeTransaction",
      "outputs": [],
      "stateMutability": "nonpayable",
      "type": "function"
    },
    {
      "inputs": [
        {
          "internalType": "uint256",
          "name": "txId",
          "type": "uint256"
        }
      ],
      "name": "getConfirmations",
      "outputs": [
        {
          "internalType": "address[]",
          "name": "",
          "type": "address[]"
        }
      ],
      "stateMutability": "view",
      "type": "function"
    },
    {
      "inputs": [
        {
          "internalType": "uint256",
          "name": "txId",
          "type": "uint256"
        }
      ],
      "name": "cancelTransaction",
      "outputs": [],
      "stateMutability": "nonpayable",
      "type": "function"
    },
    {
      "inputs": [
        {
          "internalType": "address",
          "name": "newOwner",
          "type": "address"
        }
      ],
      "name": "addOwner",
      "outputs": [],
      "stateMutability": "nonpayable",
      "type": "function"
    },
    {
      "inputs": [
        {
          "internalType": "address",
          "name": "owner",
          "type": "address"
        }
      ],
      "name": "removeOwner",
      "outputs": [],
      "stateMutability": "nonpayable",
      "type": "function"
    },
    {
      "inputs": [
        {
          "internalType": "address",
          "name": "delegate",
          "type": "address"
        }
      ],
      "name": "assignSessionDelegate",
      "outputs": [],
      "stateMutability": "nonpayable",
      "type": "function"
    }
  ],
  "bytecode": "0x6080604052610e10600455600a6006553480156200001b575f80fd5b50604051620043d9380380620043d983398181016040528101906200004191906200062e565b60016002819055505f8251116200008f576040517f08c379a00000000000000000000000000000000000000000000000000000000081526004016200008690620006f0565b60405180910390fd5b5f81118015620000a0575081518111155b620000e2576040517f08c379a0000000000000000000000000000000000000000000000000000000008152600401620000d9906200075e565b60405180910390fd5b620000f65f801b33620001ab60201b60201c565b5f5b82518110156200019b57620001517fb19546dff01e856fb3f010c267a7b1c60363cf8a4664e21cc89c26224620214e8483815181106200013d576200013c6200077e565b5b6020026020010151620001c160201b60201c565b620001848382815181106200016b576200016a6200077e565b5b6020026020010151600b620001fd60201b90919060201c565b5080806200019290620007d8565b915050620000f8565b5080600381905550505062000824565b620001bd8282620001c160201b60201c565b5050565b620001d382826200023260201b60201c565b620001f88160015f8581526020019081526020015f20620001fd60201b90919060201c565b505050565b5f6200022a835f018373ffffffffffffffffffffffffffffffffffffffff165f1b6200031d60201b60201c565b905092915050565b6200024482826200038e60201b60201c565b620003195760015f808481526020019081526020015f205f015f8373ffffffffffffffffffffffffffffffffffffffff1673ffffffffffffffffffffffffffffffffffffffff1681526020019081526020015f205f6101000a81548160ff021916908315150217905550620002be620003f160201b60201c565b73ffffffffffffffffffffffffffffffffffffffff168173ffffffffffffffffffffffffffffffffffffffff16837f2f8788117e7eff1d82e926ec794901d17c78024a50270940304540a733656f0d60405160405180910390a45b5050565b5f620003308383620003f860201b60201c565b6200038457825f0182908060018154018082558091505060019003905f5260205f20015f9091909190915055825f0180549050836001015f8481526020019081526020015f20819055506001905062000388565b5f90505b92915050565b5f805f8481526020019081526020015f205f015f8373ffffffffffffffffffffffffffffffffffffffff1673ffffffffffffffffffffffffffffffffffffffff1681526020019081526020015f205f9054906101000a900460ff16905092915050565b5f33905090565b5f80836001015f8481526020019081526020015f20541415905092915050565b5f604051905090565b5f80fd5b5f80fd5b5f80fd5b5f601f19601f8301169050919050565b7f4e487b71000000000000000000000000000000000000000000000000000000005f52604160045260245ffd5b62000475826200042d565b810181811067ffffffffffffffff821117156200049757620004966200043d565b5b80604052505050565b5f620004ab62000418565b9050620004b982826200046a565b919050565b5f67ffffffffffffffff821115620004db57620004da6200043d565b5b602082029050602081019050919050565b5f80fd5b5f73ffffffffffffffffffffffffffffffffffffffff82169050919050565b5f6200051b82620004f0565b9050919050565b6200052d816200050f565b811462000538575f80fd5b50565b5f815190506200054b8162000522565b92915050565b5f620005676200056184620004be565b620004a0565b905080838252602082019050602084028301858111156200058d576200058c620004ec565b5b835b81811015620005ba5780620005a588826200053b565b8452602084019350506020810190506200058f565b5050509392505050565b5f82601f830112620005db57620005da62000429565b5b8151620005ed84826020860162000551565b91505092915050565b5f819050919050565b6200060a81620005f6565b811462000615575f80fd5b50565b5f815190506200062881620005ff565b92915050565b5f806040838503121562000647576200064662000421565b5b5f83015167ffffffffffffffff81111562000667576200066662000425565b5b6200067585828601620005c4565b9250506020620006888582860162000618565b9150509250929050565b5f82825260208201905092915050565b7f4e6f206f776e65727300000000000000000000000000000000000000000000005f82015250565b5f620006d860098362000692565b9150620006e582620006a2565b602082019050919050565b5f6020820190508181035f8301526200070981620006ca565b9050919050565b7f496e76616c6964207468726573686f6c640000000000000000000000000000005f82015250565b5f6200074660118362000692565b9150620007538262000710565b602082019050919050565b5f6020820190508181035f830152620007778162000738565b9050919050565b7f4e487b71000000000000000000000000000000000000000000000000000000005f52603260045260245ffd5b7f4e487b71000000000000000000000000000000000000000000000000000000005f52601160045260245ffd5b5f620007e482620005f6565b91507fffffffffffffffffffffffffffffffffffffffffffffffffffffffffffffffff8203620008195762000818620007ab565b5b600182019050919050565b613ba780620008325f395ff3fe6080604052600436106101d0575f3560e01c80639010d07c116100f6578063c01a8c8411610094578063d547741f11610063578063d547741f146106bd578063e58378bb146106e5578063e69dc1c41461070f578063ee22610b1461074b576101d7565b8063c01a8c8414610607578063c3d8fea11461062f578063c63c4e9b14610657578063ca15c87314610681576101d7565b8063a0e67e2b116100d0578063a0e67e2b1461054d578063a217fddf14610577578063b5dc40c3146105a1578063b8606eef146105dd576101d7565b80639010d07c1461049357806391d14854146104cf5780639ace38c21461050b576101d7565b80633411c81c1161016e5780636e1d616e1161013d5780636e1d616e146103db5780637065cb481461040557806382e717f71461042d5780638d39905f14610457576101d7565b80633411c81c1461031d57806336568abe14610359578063469048401461038157806346e24b08146103ab576101d7565b806320ea8d86116101aa57806320ea8d8614610269578063248a9ca3146102915780632f2ff15d146102cd5780633380c0d8146102f5576101d7565b806301ffc9a7146101db57806307bd026514610217578063173825d914610241576101d7565b366101d757005b5f80fd5b3480156101e6575f80fd5b5061020160048036038101906101fc91906127ce565b610773565b60405161020e9190612813565b60405180910390f35b348015610222575f80fd5b5061022b6107ec565b6040516102389190612844565b60405180910390f35b34801561024c575f80fd5b50610267600480360381019061026291906128b7565b610810565b005b348015610274575f80fd5b5061028f600480360381019061028a9190612915565b6108f5565b005b34801561029c575f80fd5b506102b760048036038101906102b2919061296a565b610b79565b6040516102c49190612844565b60405180910390f35b3480156102d8575f80fd5b506102f360048036038101906102ee9190612995565b610b95565b005b348015610300575f80fd5b5061031b60048036038101906103169190612915565b610bb6565b005b348015610328575f80fd5b50610343600480360381019061033e91906129d3565b610d2b565b6040516103509190612813565b60405180910390f35b348015610364575f80fd5b5061037f600480360381019061037a9190612995565b610d55565b005b34801561038c575f80fd5b50610395610dd8565b6040516103a29190612a20565b60405180910390f35b6103c560048036038101906103c09190612aef565b610dfd565b6040516103d29190612ba1565b60405180910390f35b3480156103e6575f80fd5b506103ef61125e565b6040516103fc9190612844565b60405180910390f35b348015610410575f80fd5b5061042b600480360381019061042691906128b7565b611282565b005b348015610438575f80fd5b50610441611368565b60405161044e9190612ba1565b60405180910390f35b348015610462575f80fd5b5061047d600480360381019061047891906128b7565b61136e565b60405161048a9190612ba1565b60405180910390f35b34801561049e575f80fd5b506104b960048036038101906104b49190612bba565b611383565b6040516104c69190612a20565b60405180910390f35b3480156104da575f80fd5b506104f560048036038101906104f09190612995565b6113af565b6040516105029190612813565b60405180910390f35b348015610516575f80fd5b50610531600480360381019061052c9190612915565b611412565b6040516105449796959493929190612cd4565b60405180910390f35b348015610558575f80fd5b50610561611587565b60405161056e9190612e06565b60405180910390f35b348015610582575f80fd5b5061058b611598565b6040516105989190612844565b60405180910390f35b3480156105ac575f80fd5b506105c760048036038101906105c29190612915565b61159e565b6040516105d49190612e06565b60405180910390f35b3480156105e8575f80fd5b506105f16117b9565b6040516105fe9190612ba1565b60405180910390f35b348015610612575f80fd5b5061062d60048036038101906106289190612915565b6117bf565b005b34801561063a575f80fd5b50610655600480360381019061065091906128b7565b611a47565b005b348015610662575f80fd5b5061066b611b4b565b6040516106789190612ba1565b60405180910390f35b34801561068c575f80fd5b506106a760048036038101906106a2919061296a565b611b51565b6040516106b49190612ba1565b60405180910390f35b3480156106c8575f80fd5b506106e360048036038101906106de9190612995565b611b72565b005b3480156106f0575f80fd5b506106f9611b93565b6040516107069190612844565b60405180910390f35b34801561071a575f80fd5b50610735600480360381019061073091906128b7565b611bb7565b6040516107429190612813565b60405180910390f35b348015610756575f80fd5b50610771600480360381019061076c9190612915565b611bd4565b005b5f7f5a05180f000000000000000000000000000000000000000000000000000000007bffffffffffffffffffffffffffffffffffffffffffffffffffffffff1916827bffffffffffffffffffffffffffffffffffffffffffffffffffffffff191614806107e557506107e482611e1d565b5b9050919050565b7fd8aa0f3194971a2a116679f7c2090f6939c8d4e01a2a8d7e41d55e5351469e6381565b5f801b61081c81611e96565b61083082600b611eaa90919063ffffffff16565b61086f576040517f08c379a000000000000000000000000000000000000000000000000000000000815260040161086690612e70565b60405180910390fd5b61088382600b611ed790919063ffffffff16565b506108ae7fb19546dff01e856fb3f010c267a7b1c60363cf8a4664e21cc89c26224620214e83611f04565b8173ffffffffffffffffffffffffffffffffffffffff167f58619076adf5bb0943d100ef88d52d7c3fd691b19d3a9071b555b651fbf418da60405160405180910390a25050565b61091f7fb19546dff01e856fb3f010c267a7b1c60363cf8a4664e21cc89c26224620214e336113af565b61095e576040517f08c379a000000000000000000000000000000000000000000000000000000000815260040161095590612e70565b60405180910390fd5b806109696008611f36565b81106109aa576040517f08c379a00000000000000000000000000000000000000000000000000000000081526004016109a190612ed8565b60405180910390fd5b8160095f8281526020019081526020015f206003015f9054906101000a900460ff1615610a0c576040517f08c379a0000000000000000000000000000000000000000000000000000000008152600401610a0390612f40565b60405180910390fd5b600a5f8481526020019081526020015f205f3373ffffffffffffffffffffffffffffffffffffffff1673ffffffffffffffffffffffffffffffffffffffff1681526020019081526020015f205f9054906101000a900460ff16610aa4576040517f08c379a0000000000000000000000000000000000000000000000000000000008152600401610a9b90612fa8565b60405180910390fd5b5f600a5f8581526020019081526020015f205f3373ffffffffffffffffffffffffffffffffffffffff1673ffffffffffffffffffffffffffffffffffffffff1681526020019081526020015f205f6101000a81548160ff02191690831515021790555060095f8481526020019081526020015f206004015f815480929190610b2b90612ff3565b91905055503373ffffffffffffffffffffffffffffffffffffffff16837f7f8ce8e4f5a5b480ff78c18404639350996fd63efc83ace55b1d6a3e12158e2460405160405180910390a3505050565b5f805f8381526020019081526020015f20600101549050919050565b610b9e82610b79565b610ba781611e96565b610bb18383611f42565b505050565b610be07fb19546dff01e856fb3f010c267a7b1c60363cf8a4664e21cc89c26224620214e336113af565b610c1f576040517f08c379a0000000000000000000000000000000000000000000000000000000008152600401610c1690612e70565b60405180910390fd5b80610c2a6008611f36565b8110610c6b576040517f08c379a0000000000000000000000000000000000000000000000000000000008152600401610c6290612ed8565b60405180910390fd5b8160095f8281526020019081526020015f206003015f9054906101000a900460ff1615610ccd576040517f08c379a0000000000000000000000000000000000000000000000000000000008152600401610cc490612f40565b60405180910390fd5b600160095f8581526020019081526020015f206003015f6101000a81548160ff021916908315150217905550827f956fb32199d8b882b2039a14e1be35ab14f7a80b9089fc223f14b43937173e6060405160405180910390a2505050565b600a602052815f5260405f20602052805f5260405f205f915091509054906101000a900460ff1681565b610d5d611f74565b73ffffffffffffffffffffffffffffffffffffffff168173ffffffffffffffffffffffffffffffffffffffff1614610dca576040517f08c379a0000000000000000000000000000000000000000000000000000000008152600401610dc19061308a565b60405180910390fd5b610dd48282611f04565b5050565b60075f9054906101000a900473ffffffffffffffffffffffffffffffffffffffff1681565b5f610e287fb19546dff01e856fb3f010c267a7b1c60363cf8a4664e21cc89c26224620214e336113af565b610e67576040517f08c379a0000000000000000000000000000000000000000000000000000000008152600401610e5e90612e70565b60405180910390fd5b60045460055f3373ffffffffffffffffffffffffffffffffffffffff1673ffffffffffffffffffffffffffffffffffffffff1681526020019081526020015f205442610eb391906130a8565b1015610ef4576040517f08c379a0000000000000000000000000000000000000000000000000000000008152600401610eeb90613125565b60405180910390fd5b855f600654118015610f5357505f73ffffffffffffffffffffffffffffffffffffffff1660075f9054906101000a900473ffffffffffffffffffffffffffffffffffffffff1673ffffffffffffffffffffffffffffffffffffffff1614155b15611020575f61271060065483610f6a9190613143565b610f7491906131b1565b905080341015610fb9576040517f08c379a0000000000000000000000000000000000000000000000000000000008152600401610fb09061322b565b60405180910390fd5b60075f9054906101000a900473ffffffffffffffffffffffffffffffffffffffff1673ffffffffffffffffffffffffffffffffffffffff166108fc8290811502906040515f60405180830381858888f1935050505015801561101d573d5f803e3d5ffd5b50505b4260055f3373ffffffffffffffffffffffffffffffffffffffff1673ffffffffffffffffffffffffffffffffffffffff1681526020019081526020015f20819055505f61106d6008611f36565b90506110796008611f7b565b6040518060e001604052808a73ffffffffffffffffffffffffffffffffffffffff16815260200189815260200188888080601f0160208091040260200160405190810160405280939291908181526020018383808284375f81840152601f19601f8201169050808301925050505050505081526020015f151581526020015f815260200142815260200186868080601f0160208091040260200160405190810160405280939291908181526020018383808284375f81840152601f19601f8201169050808301925050505050505081525060095f8381526020019081526020015f205f820151815f015f6101000a81548173ffffffffffffffffffffffffffffffffffffffff021916908373ffffffffffffffffffffffffffffffffffffffff1602179055506020820151816001015560408201518160020190816111be9190613470565b506060820151816003015f6101000a81548160ff0219169083151502179055506080820151816004015560a0820151816005015560c08201518160060190816112079190613597565b509050503373ffffffffffffffffffffffffffffffffffffffff16817fd2fe142c322b51dd37d766a61dc83764db4e89e2b6a279e511f36bab02fa64db60405160405180910390a380925050509695505050505050565b7f59a1c48e5837ad7a7f3dcedcbe129bf3249ec4fbf651fd4f5e2600ead39fe2f581565b5f801b61128e81611e96565b6112a282600b611eaa90919063ffffffff16565b156112e2576040517f08c379a00000000000000000000000000000000000000000000000000000000081526004016112d9906136b0565b60405180910390fd5b6112f682600b611f8f90919063ffffffff16565b506113217fb19546dff01e856fb3f010c267a7b1c60363cf8a4664e21cc89c26224620214e83611f42565b8173ffffffffffffffffffffffffffffffffffffffff167f994a936646fe87ffe4f1e469d3d6aa417d6b855598397f323de5b449f765f0c360405160405180910390a25050565b60035481565b6005602052805f5260405f205f915090505481565b5f6113a78260015f8681526020019081526020015f20611fbc90919063ffffffff16565b905092915050565b5f805f8481526020019081526020015f205f015f8373ffffffffffffffffffffffffffffffffffffffff1673ffffffffffffffffffffffffffffffffffffffff1681526020019081526020015f205f9054906101000a900460ff16905092915050565b6009602052805f5260405f205f91509050805f015f9054906101000a900473ffffffffffffffffffffffffffffffffffffffff169080600101549080600201805461145c906132a3565b80601f0160208091040260200160405190810160405280929190818152602001828054611488906132a3565b80156114d35780601f106114aa576101008083540402835291602001916114d3565b820191905f5260205f20905b8154815290600101906020018083116114b657829003601f168201915b505050505090806003015f9054906101000a900460ff1690806004015490806005015490806006018054611506906132a3565b80601f0160208091040260200160405190810160405280929190818152602001828054611532906132a3565b801561157d5780601f106115545761010080835404028352916020019161157d565b820191905f5260205f20905b81548152906001019060200180831161156057829003601f168201915b5050505050905087565b6060611593600b611fd3565b905090565b5f801b81565b60605f6115a9611587565b90505f805b825181101561165157600a5f8681526020019081526020015f205f8483815181106115dc576115db6136ce565b5b602002602001015173ffffffffffffffffffffffffffffffffffffffff1673ffffffffffffffffffffffffffffffffffffffff1681526020019081526020015f205f9054906101000a900460ff161561163e57818061163a906136fb565b9250505b8080611649906136fb565b9150506115ae565b505f8167ffffffffffffffff81111561166d5761166c613249565b5b60405190808252806020026020018201604052801561169b5781602001602082028036833780820191505090505b5090505f805b84518110156117ac57600a5f8881526020019081526020015f205f8683815181106116cf576116ce6136ce565b5b602002602001015173ffffffffffffffffffffffffffffffffffffffff1673ffffffffffffffffffffffffffffffffffffffff1681526020019081526020015f205f9054906101000a900460ff161561179957848181518110611735576117346136ce565b5b60200260200101518383815181106117505761174f6136ce565b5b602002602001019073ffffffffffffffffffffffffffffffffffffffff16908173ffffffffffffffffffffffffffffffffffffffff16815250508180611795906136fb565b9250505b80806117a4906136fb565b9150506116a1565b5081945050505050919050565b60065481565b6117e97fb19546dff01e856fb3f010c267a7b1c60363cf8a4664e21cc89c26224620214e336113af565b611828576040517f08c379a000000000000000000000000000000000000000000000000000000000815260040161181f90612e70565b60405180910390fd5b806118336008611f36565b8110611874576040517f08c379a000000000000000000000000000000000000000000000000000000000815260040161186b90612ed8565b60405180910390fd5b8160095f8281526020019081526020015f206003015f9054906101000a900460ff16156118d6576040517f08c379a00000000000000000000000000000000000000000000000000000000081526004016118cd90612f40565b60405180910390fd5b82600a5f8281526020019081526020015f205f3373ffffffffffffffffffffffffffffffffffffffff1673ffffffffffffffffffffffffffffffffffffffff1681526020019081526020015f205f9054906101000a900460ff1615611970576040517f08c379a00000000000000000000000000000000000000000000000000000000081526004016119679061378c565b60405180910390fd5b6001600a5f8681526020019081526020015f205f3373ffffffffffffffffffffffffffffffffffffffff1673ffffffffffffffffffffffffffffffffffffffff1681526020019081526020015f205f6101000a81548160ff02191690831515021790555060095f8581526020019081526020015f206004015f8154809291906119f8906136fb565b91905055503373ffffffffffffffffffffffffffffffffffffffff16847fcb0f87c749501e9cd0f274dc3a2c62b91b6a4f2909001c6c13663072b739d3d660405160405180910390a350505050565b611a717fb19546dff01e856fb3f010c267a7b1c60363cf8a4664e21cc89c26224620214e336113af565b611ab0576040517f08c379a0000000000000000000000000000000000000000000000000000000008152600401611aa790612e70565b60405180910390fd5b6001600d5f8373ffffffffffffffffffffffffffffffffffffffff1673ffffffffffffffffffffffffffffffffffffffff1681526020019081526020015f205f6101000a81548160ff0219169083151502179055508073ffffffffffffffffffffffffffffffffffffffff167f6a5611f59249d71c416c308805b7ecd9b00c763fb4b800b490284ae34006e6ff60405160405180910390a250565b60045481565b5f611b6b60015f8481526020019081526020015f20611ff2565b9050919050565b611b7b82610b79565b611b8481611e96565b611b8e8383611f04565b505050565b7fb19546dff01e856fb3f010c267a7b1c60363cf8a4664e21cc89c26224620214e81565b600d602052805f5260405f205f915054906101000a900460ff1681565b611bdc612005565b80611be76008611f36565b8110611c28576040517f08c379a0000000000000000000000000000000000000000000000000000000008152600401611c1f90612ed8565b60405180910390fd5b8160095f8281526020019081526020015f206003015f9054906101000a900460ff1615611c8a576040517f08c379a0000000000000000000000000000000000000000000000000000000008152600401611c8190612f40565b60405180910390fd5b5f60095f8581526020019081526020015f20905060035481600401541015611ce7576040517f08c379a0000000000000000000000000000000000000000000000000000000008152600401611cde906137f4565b60405180910390fd5b6001816003015f6101000a81548160ff0219169083151502179055505f815f015f9054906101000a900473ffffffffffffffffffffffffffffffffffffffff1673ffffffffffffffffffffffffffffffffffffffff16826001015483600201604051611d53919061389c565b5f6040518083038185875af1925050503d805f8114611d8d576040519150601f19603f3d011682016040523d82523d5f602084013e611d92565b606091505b5050905080611dd6576040517f08c379a0000000000000000000000000000000000000000000000000000000008152600401611dcd906138fc565b60405180910390fd5b847fff0d827e815551ef359e2272c2751de1c593cdff65e6e59efab752e10e9ef6d233604051611e069190612a20565b60405180910390a250505050611e1a612052565b50565b5f7f7965db0b000000000000000000000000000000000000000000000000000000007bffffffffffffffffffffffffffffffffffffffffffffffffffffffff1916827bffffffffffffffffffffffffffffffffffffffffffffffffffffffff19161480611e8f5750611e8e8261205c565b5b9050919050565b611ea781611ea2611f74565b6120c5565b50565b5f611ecf835f018373ffffffffffffffffffffffffffffffffffffffff165f1b612149565b905092915050565b5f611efc835f018373ffffffffffffffffffffffffffffffffffffffff165f1b612169565b905092915050565b611f0e8282612265565b611f318160015f8581526020019081526020015f20611ed790919063ffffffff16565b505050565b5f815f01549050919050565b611f4c828261233f565b611f6f8160015f8581526020019081526020015f20611f8f90919063ffffffff16565b505050565b5f33905090565b6001815f015f828254019250508190555050565b5f611fb4835f018373ffffffffffffffffffffffffffffffffffffffff165f1b612419565b905092915050565b5f611fc9835f0183612480565b5f1c905092915050565b60605f611fe1835f016124a7565b905060608190508092505050919050565b5f611ffe825f01612500565b9050919050565b6002805403612049576040517f08c379a000000000000000000000000000000000000000000000000000000000815260040161204090613964565b60405180910390fd5b60028081905550565b6001600281905550565b5f7f01ffc9a7000000000000000000000000000000000000000000000000000000007bffffffffffffffffffffffffffffffffffffffffffffffffffffffff1916827bffffffffffffffffffffffffffffffffffffffffffffffffffffffff1916149050919050565b6120cf82826113af565b612145576120dc8161250f565b6120e9835f1c602061253c565b6040516020016120fa929190613a50565b6040516020818303038152906040526040517f08c379a000000000000000000000000000000000000000000000000000000000815260040161213c9190613a89565b60405180910390fd5b5050565b5f80836001015f8481526020019081526020015f20541415905092915050565b5f80836001015f8481526020019081526020015f205490505f811461225a575f60018261219691906130a8565b90505f6001865f01805490506121ac91906130a8565b9050818114612212575f865f0182815481106121cb576121ca6136ce565b5b905f5260205f200154905080875f0184815481106121ec576121eb6136ce565b5b905f5260205f20018190555083876001015f8381526020019081526020015f2081905550505b855f0180548061222557612224613aa9565b5b600190038181905f5260205f20015f90559055856001015f8681526020019081526020015f205f90556001935050505061225f565b5f9150505b92915050565b61226f82826113af565b1561233b575f805f8481526020019081526020015f205f015f8373ffffffffffffffffffffffffffffffffffffffff1673ffffffffffffffffffffffffffffffffffffffff1681526020019081526020015f205f6101000a81548160ff0219169083151502179055506122e0611f74565b73ffffffffffffffffffffffffffffffffffffffff168173ffffffffffffffffffffffffffffffffffffffff16837ff6391f5c32d9c69d2a47ea670b442974b53935d1edc7fd64eb21e047a839171b60405160405180910390a45b5050565b61234982826113af565b6124155760015f808481526020019081526020015f205f015f8373ffffffffffffffffffffffffffffffffffffffff1673ffffffffffffffffffffffffffffffffffffffff1681526020019081526020015f205f6101000a81548160ff0219169083151502179055506123ba611f74565b73ffffffffffffffffffffffffffffffffffffffff168173ffffffffffffffffffffffffffffffffffffffff16837f2f8788117e7eff1d82e926ec794901d17c78024a50270940304540a733656f0d60405160405180910390a45b5050565b5f6124248383612149565b61247657825f0182908060018154018082558091505060019003905f5260205f20015f9091909190915055825f0180549050836001015f8481526020019081526020015f20819055506001905061247a565b5f90505b92915050565b5f825f018281548110612496576124956136ce565b5b905f5260205f200154905092915050565b6060815f018054806020026020016040519081016040528092919081815260200182805480156124f457602002820191905f5260205f20905b8154815260200190600101908083116124e0575b50505050509050919050565b5f815f01805490509050919050565b60606125358273ffffffffffffffffffffffffffffffffffffffff16601460ff1661253c565b9050919050565b60605f600283600261254e9190613143565b6125589190613ad6565b67ffffffffffffffff81111561257157612570613249565b5b6040519080825280601f01601f1916602001820160405280156125a35781602001600182028036833780820191505090505b5090507f3000000000000000000000000000000000000000000000000000000000000000815f815181106125da576125d96136ce565b5b60200101907effffffffffffffffffffffffffffffffffffffffffffffffffffffffffffff191690815f1a9053507f78000000000000000000000000000000000000000000000000000000000000008160018151811061263d5761263c6136ce565b5b60200101907effffffffffffffffffffffffffffffffffffffffffffffffffffffffffffff191690815f1a9053505f600184600261267b9190613143565b6126859190613ad6565b90505b6001811115612724577f3031323334353637383961626364656600000000000000000000000000000000600f8616601081106126c7576126c66136ce565b5b1a60f81b8282815181106126de576126dd6136ce565b5b60200101907effffffffffffffffffffffffffffffffffffffffffffffffffffffffffffff191690815f1a905350600485901c94508061271d90612ff3565b9050612688565b505f8414612767576040517f08c379a000000000000000000000000000000000000000000000000000000000815260040161275e90613b53565b60405180910390fd5b8091505092915050565b5f80fd5b5f80fd5b5f7fffffffff0000000000000000000000000000000000000000000000000000000082169050919050565b6127ad81612779565b81146127b7575f80fd5b50565b5f813590506127c8816127a4565b92915050565b5f602082840312156127e3576127e2612771565b5b5f6127f0848285016127ba565b91505092915050565b5f8115159050919050565b61280d816127f9565b82525050565b5f6020820190506128265f830184612804565b92915050565b5f819050919050565b61283e8161282c565b82525050565b5f6020820190506128575f830184612835565b92915050565b5f73ffffffffffffffffffffffffffffffffffffffff82169050919050565b5f6128868261285d565b9050919050565b6128968161287c565b81146128a0575f80fd5b50565b5f813590506128b18161288d565b92915050565b5f602082840312156128cc576128cb612771565b5b5f6128d9848285016128a3565b91505092915050565b5f819050919050565b6128f4816128e2565b81146128fe575f80fd5b50565b5f8135905061290f816128eb565b92915050565b5f6020828403121561292a57612929612771565b5b5f61293784828501612901565b91505092915050565b6129498161282c565b8114612953575f80fd5b50565b5f8135905061296481612940565b92915050565b5f6020828403121561297f5761297e612771565b5b5f61298c84828501612956565b91505092915050565b5f80604083850312156129ab576129aa612771565b5b5f6129b885828601612956565b92505060206129c9858286016128a3565b9150509250929050565b5f80604083850312156129e9576129e8612771565b5b5f6129f685828601612901565b9250506020612a07858286016128a3565b9150509250929050565b612a1a8161287c565b82525050565b5f602082019050612a335f830184612a11565b92915050565b5f80fd5b5f80fd5b5f80fd5b5f8083601f840112612a5a57612a59612a39565b5b8235905067ffffffffffffffff811115612a7757612a76612a3d565b5b602083019150836001820283011115612a9357612a92612a41565b5b9250929050565b5f8083601f840112612aaf57612aae612a39565b5b8235905067ffffffffffffffff811115612acc57612acb612a3d565b5b602083019150836001820283011115612ae857612ae7612a41565b5b9250929050565b5f805f805f8060808789031215612b0957612b08612771565b5b5f612b1689828a016128a3565b9650506020612b2789828a01612901565b955050604087013567ffffffffffffffff811115612b4857612b47612775565b5b612b5489828a01612a45565b9450945050606087013567ffffffffffffffff811115612b7757612b76612775565b5b612b8389828a01612a9a565b92509250509295509295509295565b612b9b816128e2565b82525050565b5f602082019050612bb45f830184612b92565b92915050565b5f8060408385031215612bd057612bcf612771565b5b5f612bdd85828601612956565b9250506020612bee85828601612901565b9150509250929050565b5f81519050919050565b5f82825260208201905092915050565b5f5b83811015612c2f578082015181840152602081019050612c14565b5f8484015250505050565b5f601f19601f8301169050919050565b5f612c5482612bf8565b612c5e8185612c02565b9350612c6e818560208601612c12565b612c7781612c3a565b840191505092915050565b5f81519050919050565b5f82825260208201905092915050565b5f612ca682612c82565b612cb08185612c8c565b9350612cc0818560208601612c12565b612cc981612c3a565b840191505092915050565b5f60e082019050612ce75f83018a612a11565b612cf46020830189612b92565b8181036040830152612d068188612c4a565b9050612d156060830187612804565b612d226080830186612b92565b612d2f60a0830185612b92565b81810360c0830152612d418184612c9c565b905098975050505050505050565b5f81519050919050565b5f82825260208201905092915050565b5f819050602082019050919050565b612d818161287c565b82525050565b5f612d928383612d78565b60208301905092915050565b5f602082019050919050565b5f612db482612d4f565b612dbe8185612d59565b9350612dc983612d69565b805f5b83811015612df9578151612de08882612d87565b9750612deb83612d9e565b925050600181019050612dcc565b5085935050505092915050565b5f6020820190508181035f830152612e1e8184612daa565b905092915050565b7f4e6f7420616e206f776e657200000000000000000000000000000000000000005f82015250565b5f612e5a600c83612c8c565b9150612e6582612e26565b602082019050919050565b5f6020820190508181035f830152612e8781612e4e565b9050919050565b7f545820646f6573206e6f742065786973740000000000000000000000000000005f82015250565b5f612ec2601183612c8c565b9150612ecd82612e8e565b602082019050919050565b5f6020820190508181035f830152612eef81612eb6565b9050919050565b7f545820616c7265616479206578656375746564000000000000000000000000005f82015250565b5f612f2a601383612c8c565b9150612f3582612ef6565b602082019050919050565b5f6020820190508181035f830152612f5781612f1e565b9050919050565b7f4e6f742079657420636f6e6669726d65640000000000000000000000000000005f82015250565b5f612f92601183612c8c565b9150612f9d82612f5e565b602082019050919050565b5f6020820190508181035f830152612fbf81612f86565b9050919050565b7f4e487b71000000000000000000000000000000000000000000000000000000005f52601160045260245ffd5b5f612ffd826128e2565b91505f820361300f5761300e612fc6565b5b600182039050919050565b7f416363657373436f6e74726f6c3a2063616e206f6e6c792072656e6f756e63655f8201527f20726f6c657320666f722073656c660000000000000000000000000000000000602082015250565b5f613074602f83612c8c565b915061307f8261301a565b604082019050919050565b5f6020820190508181035f8301526130a181613068565b9050919050565b5f6130b2826128e2565b91506130bd836128e2565b92508282039050818111156130d5576130d4612fc6565b5b92915050565b7f436f6f6c646f776e2061637469766500000000000000000000000000000000005f82015250565b5f61310f600f83612c8c565b915061311a826130db565b602082019050919050565b5f6020820190508181035f83015261313c81613103565b9050919050565b5f61314d826128e2565b9150613158836128e2565b9250828202613166816128e2565b9150828204841483151761317d5761317c612fc6565b5b5092915050565b7f4e487b71000000000000000000000000000000000000000000000000000000005f52601260045260245ffd5b5f6131bb826128e2565b91506131c6836128e2565b9250826131d6576131d5613184565b5b828204905092915050565b7f496e73756666696369656e74206665652073656e7400000000000000000000005f82015250565b5f613215601583612c8c565b9150613220826131e1565b602082019050919050565b5f6020820190508181035f83015261324281613209565b9050919050565b7f4e487b71000000000000000000000000000000000000000000000000000000005f52604160045260245ffd5b7f4e487b71000000000000000000000000000000000000000000000000000000005f52602260045260245ffd5b5f60028204905060018216806132ba57607f821691505b6020821081036132cd576132cc613276565b5b50919050565b5f819050815f5260205f209050919050565b5f6020601f8301049050919050565b5f82821b905092915050565b5f6008830261332f7fffffffffffffffffffffffffffffffffffffffffffffffffffffffffffffffff826132f4565b61333986836132f4565b95508019841693508086168417925050509392505050565b5f819050919050565b5f61337461336f61336a846128e2565b613351565b6128e2565b9050919050565b5f819050919050565b61338d8361335a565b6133a16133998261337b565b848454613300565b825550505050565b5f90565b6133b56133a9565b6133c0818484613384565b505050565b5b818110156133e3576133d85f826133ad565b6001810190506133c6565b5050565b601f821115613428576133f9816132d3565b613402846132e5565b81016020851015613411578190505b61342561341d856132e5565b8301826133c5565b50505b505050565b5f82821c905092915050565b5f6134485f198460080261342d565b1980831691505092915050565b5f6134608383613439565b9150826002028217905092915050565b61347982612bf8565b67ffffffffffffffff81111561349257613491613249565b5b61349c82546132a3565b6134a78282856133e7565b5f60209050601f8311600181146134d8575f84156134c6578287015190505b6134d08582613455565b865550613537565b601f1984166134e6866132d3565b5f5b8281101561350d578489015182556001820191506020850194506020810190506134e8565b8683101561352a5784890151613526601f891682613439565b8355505b6001600288020188555050505b505050505050565b5f819050815f5260205f209050919050565b601f821115613592576135638161353f565b61356c846132e5565b8101602085101561357b578190505b61358f613587856132e5565b8301826133c5565b50505b505050565b6135a082612c82565b67ffffffffffffffff8111156135b9576135b8613249565b5b6135c382546132a3565b6135ce828285613551565b5f60209050601f8311600181146135ff575f84156135ed578287015190505b6135f78582613455565b86555061365e565b601f19841661360d8661353f565b5f5b828110156136345784890151825560018201915060208501945060208101905061360f565b86831015613651578489015161364d601f891682613439565b8355505b6001600288020188555050505b505050505050565b7f416c7265616479206f776e6572000000000000000000000000000000000000005f82015250565b5f61369a600d83612c8c565b91506136a582613666565b602082019050919050565b5f6020820190508181035f8301526136c78161368e565b9050919050565b7f4e487b71000000000000000000000000000000000000000000000000000000005f52603260045260245ffd5b5f613705826128e2565b91507fffffffffffffffffffffffffffffffffffffffffffffffffffffffffffffffff820361373757613736612fc6565b5b600182019050919050565b7f416c726561647920636f6e6669726d65640000000000000000000000000000005f82015250565b5f613776601183612c8c565b915061378182613742565b602082019050919050565b5f6020820190508181035f8301526137a38161376a565b9050919050565b7f496e73756666696369656e7420636f6e6669726d6174696f6e730000000000005f82015250565b5f6137de601a83612c8c565b91506137e9826137aa565b602082019050919050565b5f6020820190508181035f83015261380b816137d2565b9050919050565b5f81905092915050565b5f8154613828816132a3565b6138328186613812565b9450600182165f811461384c576001811461386157613893565b60ff1983168652811515820286019350613893565b61386a856132d3565b5f5b8381101561388b5781548189015260018201915060208101905061386c565b838801955050505b50505092915050565b5f6138a7828461381c565b915081905092915050565b7f457865637574696f6e206661696c6564000000000000000000000000000000005f82015250565b5f6138e6601083612c8c565b91506138f1826138b2565b602082019050919050565b5f6020820190508181035f830152613913816138da565b9050919050565b7f5265656e7472616e637947756172643a207265656e7472616e742063616c6c005f82015250565b5f61394e601f83612c8c565b91506139598261391a565b602082019050919050565b5f6020820190508181035f83015261397b81613942565b9050919050565b5f81905092915050565b7f416363657373436f6e74726f6c3a206163636f756e74200000000000000000005f82015250565b5f6139c0601783613982565b91506139cb8261398c565b601782019050919050565b5f6139e082612c82565b6139ea8185613982565b93506139fa818560208601612c12565b80840191505092915050565b7f206973206d697373696e6720726f6c65200000000000000000000000000000005f82015250565b5f613a3a601183613982565b9150613a4582613a06565b601182019050919050565b5f613a5a826139b4565b9150613a6682856139d6565b9150613a7182613a2e565b9150613a7d82846139d6565b91508190509392505050565b5f6020820190508181035f830152613aa18184612c9c565b905092915050565b7f4e487b71000000000000000000000000000000000000000000000000000000005f52603160045260245ffd5b5f613ae0826128e2565b9150613aeb836128e2565b9250828201905080821115613b0357613b02612fc6565b5b92915050565b7f537472696e67733a20686578206c656e67746820696e73756666696369656e745f82015250565b5f613b3d602083612c8c565b9150613b4882613b09565b602082019050919050565b5f6020820190508181035f830152613b6a81613b31565b905091905056fea26469706673582212209bc51012ef5906420ede5ddf2e5d2867b7f8b6b0a53ef8d3a370c15869c8166c64736f6c63430008150033",
  "immutableReferences": {},
  "source": "// SPDX-License-Identifier: MIT\r\npragma solidity ^0.8.20;\r\n\r\nimport \"@openzeppelin/contracts/access/AccessControlEnumerable.sol\";\r\nimport \"@openzeppelin/contracts/security/ReentrancyGuard.sol\";\r\nimport \"@openzeppelin/contracts/utils/structs/EnumerableSet.sol\";\r\nimport \"@openzeppelin/contracts/utils/Counters.sol\";\r\n\r\ncontract MultisigWallet is AccessControlEnumerable, ReentrancyGuard {\r\n    using EnumerableSet for EnumerableSet.AddressSet;\r\n    using Counters for Counters.Counter;\r\n\r\n    bytes32 public constant OWNER_ROLE = keccak256(\"OWNER_ROLE\");\r\n    bytes32 public constant EXECUTOR_ROLE = keccak256(\"EXECUTOR_ROLE\");\r\n    bytes32 public constant AUDITOR_ROLE = keccak256(\"AUDITOR_ROLE\");\r\n\r\n    uint256 public requiredConfirmations;\r\n    uint256 public minDelay = 1 hours; //  Cooldown time\r\n    mapping(address => uint256) public lastSubmitTime; //  Track per-user\r\nuint256 public feeBasisPoints = 10; // 0.1% (1 basis point = 0.01%)\r\naddress public feeRecipient;\r\n\r\n    struct Transaction {\r\n        address destination;\r\n        uint256 value;\r\n        bytes data;\r\n        bool executed;\r\n        uint256 numConfirmations;\r\n        uint256 timestamp;\r\n        string vaultLabel; //  New: On-chain vault label\r\n    }\r\n\r\n    Counters.Counter private _txIdTracker;\r\n    mapping(uint256 => Transaction) public transactions;\r\n    mapping(uint256 => mapping(address => bool)) public confirmations;\r\n\r\n    EnumerableSet.AddressSet private owners;\r\n    mapping(address => bool) public sessionDelegates;\r\n\r\n    event SubmitTransaction(uint256 indexed txId, address indexed sender);\r\n    event ConfirmTransaction(uint256 indexed txId, address indexed sender);\r\n    event RevokeConfirmation(uint256 indexed txId, address indexed sender);\r\n    event ExecuteTransaction(uint256 indexed txId, address executor);\r\n    event OwnerAdded(address indexed newOwner);\r\n    event OwnerRemoved(address indexed removedOwner);\r\n    event DelegateAssigned(address indexed sessionKey);\r\n    event TransactionCancelled(uint256 indexed txId);\r\n\r\n    modifier onlyOwner() {\r\n        require(hasRole(OWNER_ROLE, msg.sender), \"Not an owner\");\r\n        _;\r\n    }\r\n\r\n    modifier txExists(uint256 txId) {\r\n        require(txId < _txIdTracker.current(), \"TX does not exist\");\r\n        _;\r\n    }\r\n\r\n    modifier notExecuted(uint256 txId) {\r\n        require(!transactions[txId].executed, \"TX already executed\");\r\n        _;\r\n    }\r\n\r\n    modifier notConfirmed(uint256 txId) {\r\n        require(!confirmations[txId][msg.sender], \"Already confirmed\");\r\n        _;\r\n    }\r\n\r\n    modifier cooldown() {\r\n        require(block.timestamp - lastSubmitTime[msg.sender] >= minDelay, \"Cooldown active\");\r\n        _;\r\n    }\r\n  modifier chargeFee(uint256 value) {\r\n    if (feeBasisPoints > 0 && feeRecipient != address(0)) {\r\n        uint256 fee = (value * feeBasisPoints) / 10000;\r\n        require(msg.value >= fee, \"Insufficient fee sent\");\r\n        payable(feeRecipient).transfer(fee);\r\n    }\r\n    _;\r\n}\r\n    constructor(address[] memory _owners, uint256 _requiredConfirmations) {\r\n        require(_owners.length > 0, \"No owners\");\r\n        require(_requiredConfirmations > 0 && _requiredConfirmations <= _owners.length, \"Invalid threshold\");\r\n\r\n        _setupRole(DEFAULT_ADMIN_ROLE, msg.sender);\r\n\r\n        for (uint256 i = 0; i < _owners.length; i++) {\r\n            _grantRole(OWNER_ROLE, _owners[i]);\r\n            owners.add(_owners[i]);\r\n        }\r\n\r\n        requiredConfirmations = _requiredConfirmations;\r\n    }\r\n\r\n    function getOwners() public view returns (address[] memory) {\r\n        return owners.values();\r\n    }\r\n\r\n   function submitTransaction(\r\n    address to,\r\n    uint256 value,\r\n    bytes calldata data,\r\n    string calldata vaultLabel\r\n) external payable onlyOwner cooldown chargeFee(value) returns (uint256) {\r\n        lastSubmitTime[msg.sender] = block.timestamp;\r\n\r\n        uint256 txId = _txIdTracker.current();\r\n        _txIdTracker.increment();\r\n\r\n        transactions[txId] = Transaction({\r\n            destination: to,\r\n            value: value,\r\n            data: data,\r\n            executed: false,\r\n            numConfirmations: 0,\r\n            timestamp: block.timestamp,\r\n            vaultLabel: vaultLabel\r\n        });\r\n\r\n        emit SubmitTransaction(txId, msg.sender);\r\n        return txId;\r\n    }\r\n\r\n    function confirmTransaction(uint256 txId) external onlyOwner txExists(txId) notExecuted(txId) notConfirmed(txId) {\r\n        confirmations[txId][msg.sender] = true;\r\n        transactions[txId].numConfirmations++;\r\n\r\n        emit ConfirmTransaction(txId, msg.sender);\r\n    }\r\n\r\n    function revokeConfirmation(uint256 txId) external onlyOwner txExists(txId) notExecuted(txId) {\r\n        require(confirmations[txId][msg.sender], \"Not yet confirmed\");\r\n        confirmations[txId][msg.sender] = false;\r\n        transactions[txId].numConfirmations--;\r\n\r\n        emit RevokeConfirmation(txId, msg.sender);\r\n    }\r\n\r\n    function executeTransaction(uint256 txId) external nonReentrant txExists(txId) notExecuted(txId) {\r\n        Transaction storage txn = transactions[txId];\r\n        require(txn.numConfirmations >= requiredConfirmations, \"Insufficient confirmations\");\r\n\r\n        txn.executed = true;\r\n\r\n        (bool success, ) = txn.destination.call{value: txn.value}(txn.data);\r\n        require(success, \"Execution failed\");\r\n\r\n        emit ExecuteTransaction(txId, msg.sender);\r\n    }\r\n      \r\n      function getConfirmations(uint256 txId) public view returns (address[] memory) {\r\n    address[] memory allOwners = getOwners();\r\n    uint256 count = 0;\r\n\r\n    for (uint256 i = 0; i < allOwners.length; i++) {\r\n        if (confirmations[txId][allOwners[i]]) {\r\n            count++;\r\n        }\r\n    }\r\n\r\n    address[] memory confirmed = new address[](count);\r\n    uint256 idx = 0;\r\n\r\n    for (uint256 i = 0; i < allOwners.length; i++) {\r\n        if (confirmations[txId][allOwners[i]]) {\r\n            confirmed[idx] = allOwners[i];\r\n            idx++;\r\n        }\r\n    }\r\n\r\n    return confirmed;\r\n}\r\n\r\n\r\n    function cancelTransaction(uint256 txId) external onlyOwner txExists(txId) notExecuted(txId) {\r\n        transactions[txId].executed = true;\r\n        emit TransactionCancelled(txId);\r\n    }\r\n\r\n    function addOwner(address newOwner) external onlyRole(DEFAULT_ADMIN_ROLE) {\r\n        require(!owners.contains(newOwner), \"Already owner\");\r\n        owners.add(newOwner);\r\n        _grantRole(OWNER_ROLE, newOwner);\r\n        emit OwnerAdded(newOwner);\r\n    }\r\n\r\n    function removeOwner(address owner) external onlyRole(DEFAULT_ADMIN_ROLE) {\r\n        require(owners.contains(owner), \"Not an owner\");\r\n        owners.remove(owner);\r\n        _revokeRole(OWNER_ROLE, owner);\r\n        emit OwnerRemoved(owner);\r\n    }\r\n\r\n    function assignSessionDelegate(address delegate) external onlyOwner {\r\n        sessionDelegates[delegate] = true;\r\n        emit DelegateAssigned(delegate);\r\n    }\r\n\r\n    receive() external payable {}\r\n}\r\n",
  "sourcePath": "E:\\Daily-multisig\\daily-multisig-app\\contracts\\contracts\\MultisigWallet.sol",
  "compiler": {
    "name": "solc",
    "version": "0.8.21+commit.d9974bed.Emscripten.clang"
  },
  "schemaVersion": "3.4.16",
  "updatedAt": "2025-07-07T07:55:29.112Z",
  "devdoc": {
    "events": {
      "RoleAdminChanged(bytes32,bytes32,bytes32)": {
        "details": "Emitted when `newAdminRole` is set as ``role``'s admin role, replacing `previousAdminRole` `DEFAULT_ADMIN_ROLE` is the starting admin for all roles, despite {RoleAdminChanged} not being emitted signaling this. _Available since v3.1._"
      },
      "RoleGranted(bytes32,address,address)": {
        "details": "Emitted when `account` is granted `role`. `sender` is the account that originated the contract call, an admin role bearer except when using {AccessControl-_setupRole}."
      },
      "RoleRevoked(bytes32,address,address)": {
        "details": "Emitted when `account` is revoked `role`. `sender` is the account that originated the contract call:   - if using `revokeRole`, it is the admin role bearer   - if using `renounceRole`, it is the role bearer (i.e. `account`)"
      }
    },
    "kind": "dev",
    "methods": {
      "getRoleAdmin(bytes32)": {
        "details": "Returns the admin role that controls `role`. See {grantRole} and {revokeRole}. To change a role's admin, use {_setRoleAdmin}."
      },
      "getRoleMember(bytes32,uint256)": {
        "details": "Returns one of the accounts that have `role`. `index` must be a value between 0 and {getRoleMemberCount}, non-inclusive. Role bearers are not sorted in any particular way, and their ordering may change at any point. WARNING: When using {getRoleMember} and {getRoleMemberCount}, make sure you perform all queries on the same block. See the following https://forum.openzeppelin.com/t/iterating-over-elements-on-enumerableset-in-openzeppelin-contracts/2296[forum post] for more information."
      },
      "getRoleMemberCount(bytes32)": {
        "details": "Returns the number of accounts that have `role`. Can be used together with {getRoleMember} to enumerate all bearers of a role."
      },
      "grantRole(bytes32,address)": {
        "details": "Grants `role` to `account`. If `account` had not been already granted `role`, emits a {RoleGranted} event. Requirements: - the caller must have ``role``'s admin role. May emit a {RoleGranted} event."
      },
      "hasRole(bytes32,address)": {
        "details": "Returns `true` if `account` has been granted `role`."
      },
      "renounceRole(bytes32,address)": {
        "details": "Revokes `role` from the calling account. Roles are often managed via {grantRole} and {revokeRole}: this function's purpose is to provide a mechanism for accounts to lose their privileges if they are compromised (such as when a trusted device is misplaced). If the calling account had been revoked `role`, emits a {RoleRevoked} event. Requirements: - the caller must be `account`. May emit a {RoleRevoked} event."
      },
      "revokeRole(bytes32,address)": {
        "details": "Revokes `role` from `account`. If `account` had been granted `role`, emits a {RoleRevoked} event. Requirements: - the caller must have ``role``'s admin role. May emit a {RoleRevoked} event."
      },
      "supportsInterface(bytes4)": {
        "details": "See {IERC165-supportsInterface}."
      }
    },
    "version": 1
  },
  "userdoc": {
    "kind": "user",
    "methods": {},
    "version": 1
  }
}