{
  "contractName": "MultisigModuleManager",
  "abi": [
    {
      "inputs": [
        {
          "internalType": "address",
          "name": "admin",
          "type": "address"
        }
      ],
      "stateMutability": "nonpayable",
      "type": "constructor"
    },
    {
      "anonymous": false,
      "inputs": [
        {
          "indexed": true,
          "internalType": "address",
          "name": "module",
          "type": "address"
        }
      ],
      "name": "ModuleDisabled",
      "type": "event"
    },
    {
      "anonymous": false,
      "inputs": [
        {
          "indexed": true,
          "internalType": "address",
          "name": "module",
          "type": "address"
        }
      ],
      "name": "ModuleEnabled",
      "type": "event"
    },
    {
      "anonymous": false,
      "inputs": [
        {
          "indexed": true,
          "internalType": "address",
          "name": "module",
          "type": "address"
        },
        {
          "indexed": false,
          "internalType": "bytes",
          "name": "data",
          "type": "bytes"
        },
        {
          "indexed": false,
          "internalType": "bytes",
          "name": "result",
          "type": "bytes"
        }
      ],
      "name": "ModuleExecuted",
      "type": "event"
    },
    {
      "anonymous": false,
      "inputs": [
        {
          "indexed": true,
          "internalType": "bytes32",
          "name": "role",
          "type": "bytes32"
        },
        {
          "indexed": true,
          "internalType": "bytes32",
          "name": "previousAdminRole",
          "type": "bytes32"
        },
        {
          "indexed": true,
          "internalType": "bytes32",
          "name": "newAdminRole",
          "type": "bytes32"
        }
      ],
      "name": "RoleAdminChanged",
      "type": "event"
    },
    {
      "anonymous": false,
      "inputs": [
        {
          "indexed": true,
          "internalType": "bytes32",
          "name": "role",
          "type": "bytes32"
        },
        {
          "indexed": true,
          "internalType": "address",
          "name": "account",
          "type": "address"
        },
        {
          "indexed": true,
          "internalType": "address",
          "name": "sender",
          "type": "address"
        }
      ],
      "name": "RoleGranted",
      "type": "event"
    },
    {
      "anonymous": false,
      "inputs": [
        {
          "indexed": true,
          "internalType": "bytes32",
          "name": "role",
          "type": "bytes32"
        },
        {
          "indexed": true,
          "internalType": "address",
          "name": "account",
          "type": "address"
        },
        {
          "indexed": true,
          "internalType": "address",
          "name": "sender",
          "type": "address"
        }
      ],
      "name": "RoleRevoked",
      "type": "event"
    },
    {
      "inputs": [],
      "name": "ADMIN_ROLE",
      "outputs": [
        {
          "internalType": "bytes32",
          "name": "",
          "type": "bytes32"
        }
      ],
      "stateMutability": "view",
      "type": "function",
      "constant": true
    },
    {
      "inputs": [],
      "name": "DEFAULT_ADMIN_ROLE",
      "outputs": [
        {
          "internalType": "bytes32",
          "name": "",
          "type": "bytes32"
        }
      ],
      "stateMutability": "view",
      "type": "function",
      "constant": true
    },
    {
      "inputs": [
        {
          "internalType": "bytes32",
          "name": "role",
          "type": "bytes32"
        }
      ],
      "name": "getRoleAdmin",
      "outputs": [
        {
          "internalType": "bytes32",
          "name": "",
          "type": "bytes32"
        }
      ],
      "stateMutability": "view",
      "type": "function",
      "constant": true
    },
    {
      "inputs": [
        {
          "internalType": "bytes32",
          "name": "role",
          "type": "bytes32"
        },
        {
          "internalType": "address",
          "name": "account",
          "type": "address"
        }
      ],
      "name": "grantRole",
      "outputs": [],
      "stateMutability": "nonpayable",
      "type": "function"
    },
    {
      "inputs": [
        {
          "internalType": "bytes32",
          "name": "role",
          "type": "bytes32"
        },
        {
          "internalType": "address",
          "name": "account",
          "type": "address"
        }
      ],
      "name": "hasRole",
      "outputs": [
        {
          "internalType": "bool",
          "name": "",
          "type": "bool"
        }
      ],
      "stateMutability": "view",
      "type": "function",
      "constant": true
    },
    {
      "inputs": [
        {
          "internalType": "address",
          "name": "",
          "type": "address"
        }
      ],
      "name": "isModuleEnabled",
      "outputs": [
        {
          "internalType": "bool",
          "name": "",
          "type": "bool"
        }
      ],
      "stateMutability": "view",
      "type": "function",
      "constant": true
    },
    {
      "inputs": [
        {
          "internalType": "bytes32",
          "name": "role",
          "type": "bytes32"
        },
        {
          "internalType": "address",
          "name": "account",
          "type": "address"
        }
      ],
      "name": "renounceRole",
      "outputs": [],
      "stateMutability": "nonpayable",
      "type": "function"
    },
    {
      "inputs": [
        {
          "internalType": "bytes32",
          "name": "role",
          "type": "bytes32"
        },
        {
          "internalType": "address",
          "name": "account",
          "type": "address"
        }
      ],
      "name": "revokeRole",
      "outputs": [],
      "stateMutability": "nonpayable",
      "type": "function"
    },
    {
      "inputs": [
        {
          "internalType": "bytes4",
          "name": "interfaceId",
          "type": "bytes4"
        }
      ],
      "name": "supportsInterface",
      "outputs": [
        {
          "internalType": "bool",
          "name": "",
          "type": "bool"
        }
      ],
      "stateMutability": "view",
      "type": "function",
      "constant": true
    },
    {
      "inputs": [
        {
          "internalType": "address",
          "name": "module",
          "type": "address"
        }
      ],
      "name": "enableModule",
      "outputs": [],
      "stateMutability": "nonpayable",
      "type": "function"
    },
    {
      "inputs": [
        {
          "internalType": "address",
          "name": "module",
          "type": "address"
        }
      ],
      "name": "disableModule",
      "outputs": [],
      "stateMutability": "nonpayable",
      "type": "function"
    },
    {
      "inputs": [
        {
          "internalType": "address",
          "name": "module",
          "type": "address"
        },
        {
          "internalType": "bytes",
          "name": "data",
          "type": "bytes"
        }
      ],
      "name": "execModule",
      "outputs": [
        {
          "internalType": "bytes",
          "name": "result",
          "type": "bytes"
        }
      ],
      "stateMutability": "nonpayable",
      "type": "function"
    },
    {
      "inputs": [
        {
          "internalType": "address",
          "name": "module",
          "type": "address"
        }
      ],
      "name": "isEnabled",
      "outputs": [
        {
          "internalType": "bool",
          "name": "",
          "type": "bool"
        }
      ],
      "stateMutability": "view",
      "type": "function",
      "constant": true
    }
  ],
  "bytecode": "0x608060405234801562000010575f80fd5b5060405162001b0538038062001b0583398181016040528101906200003691906200023d565b6200004a5f801b826200008360201b60201c565b6200007c7fa49807205ce4d355092ef5a8a18f56e8913cf4a201fbe287825b095693c21775826200008360201b60201c565b506200026d565b6200009582826200016e60201b60201c565b6200016a5760015f808481526020019081526020015f205f015f8373ffffffffffffffffffffffffffffffffffffffff1673ffffffffffffffffffffffffffffffffffffffff1681526020019081526020015f205f6101000a81548160ff0219169083151502179055506200010f620001d160201b60201c565b73ffffffffffffffffffffffffffffffffffffffff168173ffffffffffffffffffffffffffffffffffffffff16837f2f8788117e7eff1d82e926ec794901d17c78024a50270940304540a733656f0d60405160405180910390a45b5050565b5f805f8481526020019081526020015f205f015f8373ffffffffffffffffffffffffffffffffffffffff1673ffffffffffffffffffffffffffffffffffffffff1681526020019081526020015f205f9054906101000a900460ff16905092915050565b5f33905090565b5f80fd5b5f73ffffffffffffffffffffffffffffffffffffffff82169050919050565b5f6200020782620001dc565b9050919050565b6200021981620001fb565b811462000224575f80fd5b50565b5f8151905062000237816200020e565b92915050565b5f60208284031215620002555762000254620001d8565b5b5f620002648482850162000227565b91505092915050565b61188a806200027b5f395ff3fe608060405234801561000f575f80fd5b50600436106100cd575f3560e01c806375b238fc1161008a578063a217fddf11610064578063a217fddf14610233578063a95f524614610251578063aad70e231461026d578063d547741f1461029d576100cd565b806375b238fc146101b55780639015d371146101d357806391d1485414610203576100cd565b806301ffc9a7146100d1578063248a9ca3146101015780632d9ad53d146101315780632f2ff15d1461016157806336568abe1461017d578063610b592514610199575b5f80fd5b6100eb60048036038101906100e69190610f54565b6102b9565b6040516100f89190610f99565b60405180910390f35b61011b60048036038101906101169190610fe5565b610332565b604051610128919061101f565b60405180910390f35b61014b60048036038101906101469190611092565b61034e565b6040516101589190610f99565b60405180910390f35b61017b600480360381019061017691906110bd565b61036b565b005b610197600480360381019061019291906110bd565b61038c565b005b6101b360048036038101906101ae9190611092565b61040f565b005b6101bd6105cc565b6040516101ca919061101f565b60405180910390f35b6101ed60048036038101906101e89190611092565b6105f0565b6040516101fa9190610f99565b60405180910390f35b61021d600480360381019061021891906110bd565b610642565b60405161022a9190610f99565b60405180910390f35b61023b6106a5565b604051610248919061101f565b60405180910390f35b61026b60048036038101906102669190611092565b6106ab565b005b6102876004803603810190610282919061115c565b6107f9565b6040516102949190611243565b60405180910390f35b6102b760048036038101906102b291906110bd565b6109b8565b005b5f7f7965db0b000000000000000000000000000000000000000000000000000000007bffffffffffffffffffffffffffffffffffffffffffffffffffffffff1916827bffffffffffffffffffffffffffffffffffffffffffffffffffffffff1916148061032b575061032a826109d9565b5b9050919050565b5f805f8381526020019081526020015f20600101549050919050565b6001602052805f5260405f205f915054906101000a900460ff1681565b61037482610332565b61037d81610a42565b6103878383610a56565b505050565b610394610b30565b73ffffffffffffffffffffffffffffffffffffffff168173ffffffffffffffffffffffffffffffffffffffff1614610401576040517f08c379a00000000000000000000000000000000000000000000000000000000081526004016103f8906112e3565b60405180910390fd5b61040b8282610b37565b5050565b7fa49807205ce4d355092ef5a8a18f56e8913cf4a201fbe287825b095693c2177561043981610a42565b5f73ffffffffffffffffffffffffffffffffffffffff168273ffffffffffffffffffffffffffffffffffffffff16036104a7576040517f08c379a000000000000000000000000000000000000000000000000000000000815260040161049e9061134b565b60405180910390fd5b60015f8373ffffffffffffffffffffffffffffffffffffffff1673ffffffffffffffffffffffffffffffffffffffff1681526020019081526020015f205f9054906101000a900460ff1615610531576040517f08c379a0000000000000000000000000000000000000000000000000000000008152600401610528906113b3565b60405180910390fd5b6001805f8473ffffffffffffffffffffffffffffffffffffffff1673ffffffffffffffffffffffffffffffffffffffff1681526020019081526020015f205f6101000a81548160ff0219169083151502179055508173ffffffffffffffffffffffffffffffffffffffff167f7a77214430737f5a548efc743650795815091c4d522683f9665bdc753bdb8c1660405160405180910390a25050565b7fa49807205ce4d355092ef5a8a18f56e8913cf4a201fbe287825b095693c2177581565b5f60015f8373ffffffffffffffffffffffffffffffffffffffff1673ffffffffffffffffffffffffffffffffffffffff1681526020019081526020015f205f9054906101000a900460ff169050919050565b5f805f8481526020019081526020015f205f015f8373ffffffffffffffffffffffffffffffffffffffff1673ffffffffffffffffffffffffffffffffffffffff1681526020019081526020015f205f9054906101000a900460ff16905092915050565b5f801b81565b7fa49807205ce4d355092ef5a8a18f56e8913cf4a201fbe287825b095693c217756106d581610a42565b60015f8373ffffffffffffffffffffffffffffffffffffffff1673ffffffffffffffffffffffffffffffffffffffff1681526020019081526020015f205f9054906101000a900460ff1661075e576040517f08c379a00000000000000000000000000000000000000000000000000000000081526004016107559061141b565b60405180910390fd5b5f60015f8473ffffffffffffffffffffffffffffffffffffffff1673ffffffffffffffffffffffffffffffffffffffff1681526020019081526020015f205f6101000a81548160ff0219169083151502179055508173ffffffffffffffffffffffffffffffffffffffff167f24b3f8d8d24a659ee066d9959ce6855cd30740cacd7972f32c959a33e1d7e7c060405160405180910390a25050565b60607fa49807205ce4d355092ef5a8a18f56e8913cf4a201fbe287825b095693c2177561082581610a42565b60015f8673ffffffffffffffffffffffffffffffffffffffff1673ffffffffffffffffffffffffffffffffffffffff1681526020019081526020015f205f9054906101000a900460ff166108ae576040517f08c379a00000000000000000000000000000000000000000000000000000000081526004016108a59061141b565b60405180910390fd5b5f808673ffffffffffffffffffffffffffffffffffffffff1686866040516108d7929190611475565b5f60405180830381855af49150503d805f811461090f576040519150601f19603f3d011682016040523d82523d5f602084013e610914565b606091505b509150915081610959576040517f08c379a0000000000000000000000000000000000000000000000000000000008152600401610950906114d7565b60405180910390fd5b8673ffffffffffffffffffffffffffffffffffffffff167f9945212fcb9c242e40375290ada1e249e8abefc11f19a66029992821615e87158787846040516109a393929190611521565b60405180910390a28093505050509392505050565b6109c182610332565b6109ca81610a42565b6109d48383610b37565b505050565b5f7f01ffc9a7000000000000000000000000000000000000000000000000000000007bffffffffffffffffffffffffffffffffffffffffffffffffffffffff1916827bffffffffffffffffffffffffffffffffffffffffffffffffffffffff1916149050919050565b610a5381610a4e610b30565b610c11565b50565b610a608282610642565b610b2c5760015f808481526020019081526020015f205f015f8373ffffffffffffffffffffffffffffffffffffffff1673ffffffffffffffffffffffffffffffffffffffff1681526020019081526020015f205f6101000a81548160ff021916908315150217905550610ad1610b30565b73ffffffffffffffffffffffffffffffffffffffff168173ffffffffffffffffffffffffffffffffffffffff16837f2f8788117e7eff1d82e926ec794901d17c78024a50270940304540a733656f0d60405160405180910390a45b5050565b5f33905090565b610b418282610642565b15610c0d575f805f8481526020019081526020015f205f015f8373ffffffffffffffffffffffffffffffffffffffff1673ffffffffffffffffffffffffffffffffffffffff1681526020019081526020015f205f6101000a81548160ff021916908315150217905550610bb2610b30565b73ffffffffffffffffffffffffffffffffffffffff168173ffffffffffffffffffffffffffffffffffffffff16837ff6391f5c32d9c69d2a47ea670b442974b53935d1edc7fd64eb21e047a839171b60405160405180910390a45b5050565b610c1b8282610642565b610c9157610c2881610c95565b610c35835f1c6020610cc2565b604051602001610c46929190611630565b6040516020818303038152906040526040517f08c379a0000000000000000000000000000000000000000000000000000000008152600401610c8891906116a1565b60405180910390fd5b5050565b6060610cbb8273ffffffffffffffffffffffffffffffffffffffff16601460ff16610cc2565b9050919050565b60605f6002836002610cd491906116f7565b610cde9190611738565b67ffffffffffffffff811115610cf757610cf661176b565b5b6040519080825280601f01601f191660200182016040528015610d295781602001600182028036833780820191505090505b5090507f3000000000000000000000000000000000000000000000000000000000000000815f81518110610d6057610d5f611798565b5b60200101907effffffffffffffffffffffffffffffffffffffffffffffffffffffffffffff191690815f1a9053507f780000000000000000000000000000000000000000000000000000000000000081600181518110610dc357610dc2611798565b5b60200101907effffffffffffffffffffffffffffffffffffffffffffffffffffffffffffff191690815f1a9053505f6001846002610e0191906116f7565b610e0b9190611738565b90505b6001811115610eaa577f3031323334353637383961626364656600000000000000000000000000000000600f861660108110610e4d57610e4c611798565b5b1a60f81b828281518110610e6457610e63611798565b5b60200101907effffffffffffffffffffffffffffffffffffffffffffffffffffffffffffff191690815f1a905350600485901c945080610ea3906117c5565b9050610e0e565b505f8414610eed576040517f08c379a0000000000000000000000000000000000000000000000000000000008152600401610ee490611836565b60405180910390fd5b8091505092915050565b5f80fd5b5f80fd5b5f7fffffffff0000000000000000000000000000000000000000000000000000000082169050919050565b610f3381610eff565b8114610f3d575f80fd5b50565b5f81359050610f4e81610f2a565b92915050565b5f60208284031215610f6957610f68610ef7565b5b5f610f7684828501610f40565b91505092915050565b5f8115159050919050565b610f9381610f7f565b82525050565b5f602082019050610fac5f830184610f8a565b92915050565b5f819050919050565b610fc481610fb2565b8114610fce575f80fd5b50565b5f81359050610fdf81610fbb565b92915050565b5f60208284031215610ffa57610ff9610ef7565b5b5f61100784828501610fd1565b91505092915050565b61101981610fb2565b82525050565b5f6020820190506110325f830184611010565b92915050565b5f73ffffffffffffffffffffffffffffffffffffffff82169050919050565b5f61106182611038565b9050919050565b61107181611057565b811461107b575f80fd5b50565b5f8135905061108c81611068565b92915050565b5f602082840312156110a7576110a6610ef7565b5b5f6110b48482850161107e565b91505092915050565b5f80604083850312156110d3576110d2610ef7565b5b5f6110e085828601610fd1565b92505060206110f18582860161107e565b9150509250929050565b5f80fd5b5f80fd5b5f80fd5b5f8083601f84011261111c5761111b6110fb565b5b8235905067ffffffffffffffff811115611139576111386110ff565b5b60208301915083600182028301111561115557611154611103565b5b9250929050565b5f805f6040848603121561117357611172610ef7565b5b5f6111808682870161107e565b935050602084013567ffffffffffffffff8111156111a1576111a0610efb565b5b6111ad86828701611107565b92509250509250925092565b5f81519050919050565b5f82825260208201905092915050565b5f5b838110156111f05780820151818401526020810190506111d5565b5f8484015250505050565b5f601f19601f8301169050919050565b5f611215826111b9565b61121f81856111c3565b935061122f8185602086016111d3565b611238816111fb565b840191505092915050565b5f6020820190508181035f83015261125b818461120b565b905092915050565b5f82825260208201905092915050565b7f416363657373436f6e74726f6c3a2063616e206f6e6c792072656e6f756e63655f8201527f20726f6c657320666f722073656c660000000000000000000000000000000000602082015250565b5f6112cd602f83611263565b91506112d882611273565b604082019050919050565b5f6020820190508181035f8301526112fa816112c1565b9050919050565b7f496e76616c6964206d6f64756c650000000000000000000000000000000000005f82015250565b5f611335600e83611263565b915061134082611301565b602082019050919050565b5f6020820190508181035f83015261136281611329565b9050919050565b7f416c726561647920656e61626c656400000000000000000000000000000000005f82015250565b5f61139d600f83611263565b91506113a882611369565b602082019050919050565b5f6020820190508181035f8301526113ca81611391565b9050919050565b7f4d6f64756c65206e6f7420656e61626c656400000000000000000000000000005f82015250565b5f611405601283611263565b9150611410826113d1565b602082019050919050565b5f6020820190508181035f830152611432816113f9565b9050919050565b5f81905092915050565b828183375f83830152505050565b5f61145c8385611439565b9350611469838584611443565b82840190509392505050565b5f611481828486611451565b91508190509392505050565b7f4d6f64756c6520657865637574696f6e206661696c65640000000000000000005f82015250565b5f6114c1601783611263565b91506114cc8261148d565b602082019050919050565b5f6020820190508181035f8301526114ee816114b5565b9050919050565b5f61150083856111c3565b935061150d838584611443565b611516836111fb565b840190509392505050565b5f6040820190508181035f83015261153a8185876114f5565b9050818103602083015261154e818461120b565b9050949350505050565b5f81905092915050565b7f416363657373436f6e74726f6c3a206163636f756e74200000000000000000005f82015250565b5f611596601783611558565b91506115a182611562565b601782019050919050565b5f81519050919050565b5f6115c0826115ac565b6115ca8185611558565b93506115da8185602086016111d3565b80840191505092915050565b7f206973206d697373696e6720726f6c65200000000000000000000000000000005f82015250565b5f61161a601183611558565b9150611625826115e6565b601182019050919050565b5f61163a8261158a565b915061164682856115b6565b91506116518261160e565b915061165d82846115b6565b91508190509392505050565b5f611673826115ac565b61167d8185611263565b935061168d8185602086016111d3565b611696816111fb565b840191505092915050565b5f6020820190508181035f8301526116b98184611669565b905092915050565b5f819050919050565b7f4e487b71000000000000000000000000000000000000000000000000000000005f52601160045260245ffd5b5f611701826116c1565b915061170c836116c1565b925082820261171a816116c1565b91508282048414831517611731576117306116ca565b5b5092915050565b5f611742826116c1565b915061174d836116c1565b9250828201905080821115611765576117646116ca565b5b92915050565b7f4e487b71000000000000000000000000000000000000000000000000000000005f52604160045260245ffd5b7f4e487b71000000000000000000000000000000000000000000000000000000005f52603260045260245ffd5b5f6117cf826116c1565b91505f82036117e1576117e06116ca565b5b600182039050919050565b7f537472696e67733a20686578206c656e67746820696e73756666696369656e745f82015250565b5f611820602083611263565b915061182b826117ec565b602082019050919050565b5f6020820190508181035f83015261184d81611814565b905091905056fea26469706673582212201f106df27cfadebbfb2f3704b9eb79f5e6f02650344cc1e17cc7adc358c0999564736f6c63430008150033",
  "immutableReferences": {},
  "source": "// SPDX-License-Identifier: MIT\r\npragma solidity ^0.8.20;\r\n\r\nimport \"@openzeppelin/contracts/access/AccessControl.sol\";\r\n\r\ncontract MultisigModuleManager is AccessControl {\r\n    bytes32 public constant ADMIN_ROLE = keccak256(\"ADMIN_ROLE\");\r\n\r\n    // Approved modules\r\n    mapping(address => bool) public isModuleEnabled;\r\n\r\n    // Events\r\n    event ModuleEnabled(address indexed module);\r\n    event ModuleDisabled(address indexed module);\r\n    event ModuleExecuted(address indexed module, bytes data, bytes result);\r\n\r\n    constructor(address admin) {\r\n        _grantRole(DEFAULT_ADMIN_ROLE, admin);\r\n        _grantRole(ADMIN_ROLE, admin);\r\n    }\r\n\r\n    function enableModule(address module) external onlyRole(ADMIN_ROLE) {\r\n        require(module != address(0), \"Invalid module\");\r\n        require(!isModuleEnabled[module], \"Already enabled\");\r\n        isModuleEnabled[module] = true;\r\n        emit ModuleEnabled(module);\r\n    }\r\n\r\n    function disableModule(address module) external onlyRole(ADMIN_ROLE) {\r\n        require(isModuleEnabled[module], \"Module not enabled\");\r\n        isModuleEnabled[module] = false;\r\n        emit ModuleDisabled(module);\r\n    }\r\n\r\n    function execModule(\r\n        address module,\r\n        bytes calldata data\r\n    ) external onlyRole(ADMIN_ROLE) returns (bytes memory result) {\r\n        require(isModuleEnabled[module], \"Module not enabled\");\r\n\r\n        (bool success, bytes memory res) = module.delegatecall(data);\r\n        require(success, \"Module execution failed\");\r\n\r\n        emit ModuleExecuted(module, data, res);\r\n        return res;\r\n    }\r\n\r\n    function isEnabled(address module) external view returns (bool) {\r\n        return isModuleEnabled[module];\r\n    }\r\n}\r\n",
  "sourcePath": "E:\\Daily-multisig\\daily-multisig-app\\contracts\\contracts\\core\\MultsigModuleManager.sol",
  "compiler": {
    "name": "solc",
    "version": "0.8.21+commit.d9974bed.Emscripten.clang"
  },
  "schemaVersion": "3.4.16",
  "updatedAt": "2025-07-07T07:56:51.495Z",
  "networkType": "ethereum",
  "devdoc": {
    "events": {
      "RoleAdminChanged(bytes32,bytes32,bytes32)": {
        "details": "Emitted when `newAdminRole` is set as ``role``'s admin role, replacing `previousAdminRole` `DEFAULT_ADMIN_ROLE` is the starting admin for all roles, despite {RoleAdminChanged} not being emitted signaling this. _Available since v3.1._"
      },
      "RoleGranted(bytes32,address,address)": {
        "details": "Emitted when `account` is granted `role`. `sender` is the account that originated the contract call, an admin role bearer except when using {AccessControl-_setupRole}."
      },
      "RoleRevoked(bytes32,address,address)": {
        "details": "Emitted when `account` is revoked `role`. `sender` is the account that originated the contract call:   - if using `revokeRole`, it is the admin role bearer   - if using `renounceRole`, it is the role bearer (i.e. `account`)"
      }
    },
    "kind": "dev",
    "methods": {
      "getRoleAdmin(bytes32)": {
        "details": "Returns the admin role that controls `role`. See {grantRole} and {revokeRole}. To change a role's admin, use {_setRoleAdmin}."
      },
      "grantRole(bytes32,address)": {
        "details": "Grants `role` to `account`. If `account` had not been already granted `role`, emits a {RoleGranted} event. Requirements: - the caller must have ``role``'s admin role. May emit a {RoleGranted} event."
      },
      "hasRole(bytes32,address)": {
        "details": "Returns `true` if `account` has been granted `role`."
      },
      "renounceRole(bytes32,address)": {
        "details": "Revokes `role` from the calling account. Roles are often managed via {grantRole} and {revokeRole}: this function's purpose is to provide a mechanism for accounts to lose their privileges if they are compromised (such as when a trusted device is misplaced). If the calling account had been revoked `role`, emits a {RoleRevoked} event. Requirements: - the caller must be `account`. May emit a {RoleRevoked} event."
      },
      "revokeRole(bytes32,address)": {
        "details": "Revokes `role` from `account`. If `account` had been granted `role`, emits a {RoleRevoked} event. Requirements: - the caller must have ``role``'s admin role. May emit a {RoleRevoked} event."
      },
      "supportsInterface(bytes4)": {
        "details": "See {IERC165-supportsInterface}."
      }
    },
    "version": 1
  },
  "userdoc": {
    "kind": "user",
    "methods": {},
    "version": 1
  }
}