{
  "contractName": "RoleHelper",
  "abi": [
    {
      "inputs": [
        {
          "internalType": "contract AccessControlEnumerable",
          "name": "ac",
          "type": "AccessControlEnumerable"
        },
        {
          "internalType": "bytes32",
          "name": "role",
          "type": "bytes32"
        }
      ],
      "name": "getRoleMembers",
      "outputs": [
        {
          "internalType": "address[]",
          "name": "",
          "type": "address[]"
        }
      ],
      "stateMutability": "view",
      "type": "function"
    },
    {
      "inputs": [
        {
          "internalType": "contract AccessControl",
          "name": "ac",
          "type": "AccessControl"
        },
        {
          "internalType": "bytes32",
          "name": "role",
          "type": "bytes32"
        },
        {
          "internalType": "address",
          "name": "account",
          "type": "address"
        }
      ],
      "name": "has",
      "outputs": [
        {
          "internalType": "bool",
          "name": "",
          "type": "bool"
        }
      ],
      "stateMutability": "view",
      "type": "function"
    }
  ],
  "bytecode": "0x61080961004e600b8282823980515f1a607314610042577f4e487b71000000000000000000000000000000000000000000000000000000005f525f60045260245ffd5b305f52607381538281f3fe730000000000000000000000000000000000000000301460806040526004361061003f575f3560e01c80636e33309814610043578063729b468714610073575b5f80fd5b61005d600480360381019061005891906103ac565b6100a3565b60405161006a9190610416565b60405180910390f35b61008d6004803603810190610088919061046a565b610127565b60405161009a919061055f565b60405180910390f35b5f8373ffffffffffffffffffffffffffffffffffffffff166391d1485484846040518363ffffffff1660e01b81526004016100df92919061059d565b602060405180830381865afa1580156100fa573d5f803e3d5ffd5b505050506040513d601f19601f8201168201806040525081019061011e91906105ee565b90509392505050565b60605f8373ffffffffffffffffffffffffffffffffffffffff1663ca15c873846040518263ffffffff1660e01b81526004016101639190610619565b602060405180830381865afa15801561017e573d5f803e3d5ffd5b505050506040513d601f19601f820116820180604052508101906101a29190610665565b90505f8167ffffffffffffffff8111156101bf576101be610690565b5b6040519080825280602002602001820160405280156101ed5781602001602082028036833780820191505090505b5090505f5b828110156102d4578573ffffffffffffffffffffffffffffffffffffffff16639010d07c86836040518363ffffffff1660e01b81526004016102359291906106cc565b602060405180830381865afa158015610250573d5f803e3d5ffd5b505050506040513d601f19601f820116820180604052508101906102749190610707565b82828151811061028757610286610732565b5b602002602001019073ffffffffffffffffffffffffffffffffffffffff16908173ffffffffffffffffffffffffffffffffffffffff168152505080806102cc9061078c565b9150506101f2565b50809250505092915050565b5f80fd5b5f73ffffffffffffffffffffffffffffffffffffffff82169050919050565b5f61030d826102e4565b9050919050565b5f61031e82610303565b9050919050565b61032e81610314565b8114610338575f80fd5b50565b5f8135905061034981610325565b92915050565b5f819050919050565b6103618161034f565b811461036b575f80fd5b50565b5f8135905061037c81610358565b92915050565b61038b81610303565b8114610395575f80fd5b50565b5f813590506103a681610382565b92915050565b5f805f606084860312156103c3576103c26102e0565b5b5f6103d08682870161033b565b93505060206103e18682870161036e565b92505060406103f286828701610398565b9150509250925092565b5f8115159050919050565b610410816103fc565b82525050565b5f6020820190506104295f830184610407565b92915050565b5f61043982610303565b9050919050565b6104498161042f565b8114610453575f80fd5b50565b5f8135905061046481610440565b92915050565b5f80604083850312156104805761047f6102e0565b5b5f61048d85828601610456565b925050602061049e8582860161036e565b9150509250929050565b5f81519050919050565b5f82825260208201905092915050565b5f819050602082019050919050565b6104da81610303565b82525050565b5f6104eb83836104d1565b60208301905092915050565b5f602082019050919050565b5f61050d826104a8565b61051781856104b2565b9350610522836104c2565b805f5b8381101561055257815161053988826104e0565b9750610544836104f7565b925050600181019050610525565b5085935050505092915050565b5f6020820190508181035f8301526105778184610503565b905092915050565b6105888161034f565b82525050565b61059781610303565b82525050565b5f6040820190506105b05f83018561057f565b6105bd602083018461058e565b9392505050565b6105cd816103fc565b81146105d7575f80fd5b50565b5f815190506105e8816105c4565b92915050565b5f60208284031215610603576106026102e0565b5b5f610610848285016105da565b91505092915050565b5f60208201905061062c5f83018461057f565b92915050565b5f819050919050565b61064481610632565b811461064e575f80fd5b50565b5f8151905061065f8161063b565b92915050565b5f6020828403121561067a576106796102e0565b5b5f61068784828501610651565b91505092915050565b7f4e487b71000000000000000000000000000000000000000000000000000000005f52604160045260245ffd5b6106c681610632565b82525050565b5f6040820190506106df5f83018561057f565b6106ec60208301846106bd565b9392505050565b5f8151905061070181610382565b92915050565b5f6020828403121561071c5761071b6102e0565b5b5f610729848285016106f3565b91505092915050565b7f4e487b71000000000000000000000000000000000000000000000000000000005f52603260045260245ffd5b7f4e487b71000000000000000000000000000000000000000000000000000000005f52601160045260245ffd5b5f61079682610632565b91507fffffffffffffffffffffffffffffffffffffffffffffffffffffffffffffffff82036107c8576107c761075f565b5b60018201905091905056fea26469706673582212205a5b54f81a6f1ca088105e85eaecbcbac3532c4fd8e0b3f97a67e9d29474109264736f6c63430008150033",
  "immutableReferences": {},
  "source": "// SPDX-License-Identifier: MIT\r\npragma solidity ^0.8.20;\r\n\r\nimport \"@openzeppelin/contracts/access/AccessControlEnumerable.sol\";\r\n\r\nlibrary RoleHelper {\r\n    /// @notice Get all members for a specific role\r\n    function getRoleMembers(\r\n        AccessControlEnumerable ac,\r\n        bytes32 role\r\n    ) external view returns (address[] memory) {\r\n        uint256 count = ac.getRoleMemberCount(role);\r\n        address[] memory members = new address[](count);\r\n        for (uint256 i = 0; i < count; i++) {\r\n            members[i] = ac.getRoleMember(role, i);\r\n        }\r\n        return members;\r\n    }\r\n\r\n    /// @notice Check if an address has a role\r\n    function has(\r\n        AccessControl ac,\r\n        bytes32 role,\r\n        address account\r\n    ) external view returns (bool) {\r\n        return ac.hasRole(role, account);\r\n    }\r\n}\r\n",
  "sourcePath": "E:\\Daily-multisig\\daily-multisig-app\\contracts\\contracts\\utils\\RoleHelper.sol",
  "compiler": {
    "name": "solc",
    "version": "0.8.21+commit.d9974bed.Emscripten.clang"
  },
  "schemaVersion": "3.4.16",
  "updatedAt": "2025-07-07T07:55:29.171Z",
  "devdoc": {
    "kind": "dev",
    "methods": {},
    "version": 1
  },
  "userdoc": {
    "kind": "user",
    "methods": {
      "getRoleMembers(AccessControlEnumerable,bytes32)": {
        "notice": "Get all members for a specific role"
      },
      "has(AccessControl,bytes32,address)": {
        "notice": "Check if an address has a role"
      }
    },
    "version": 1
  }
}